:020000041000EA
:10000000002000208D790010892E0010CD2E0020B8
:100010000F2F0020D7790010D7790010D779001062
:10002000000000000000000000000000D779001070
:10003000D779001000000000F12D00200D8F001076
:10004000D7790010D7790010817A0010937A0010C8
:10005000A57A0010B77A0010C97A0010DB7A001078
:10006000ED7A0010FF7A0010D77900101579001092
:10007000D7790010D7790010D7790010D779001000
:10008000D7790010D7790010D7790010D7790010F0
:10009000D1860010D7790010D7790010D7790010D9
:1000A000D7790010D7790010D7790010D7790010D0
:1000B000D7790010D7790010D7790010D7790010C0
:1000C000D7790010D7790010D7790010D7790010B0
:1000D000D7790010D7790010D7790010D7790010A0
:1000E000D7790010D7790010D7790010D779001090
:1000F000D7790010D7790010D7790010D779001080
:10010000D7790010D7790010F1790010037A001028
:10011000157A0010277A0010397A00104B7A0010F7
:100120005D7A00106F7A0010D7790010A18D001051
:10013000D7790010D7790010D7790010D77900103F
:10014000D7790010D7790010D7790010D77900102F
:10015000D7790010D7790010D7790010D77900101F
:10016000D7790010D7790010B98D0010D779001019
:10017000D7790010D7790010D7790010D7790010FF
:10018000D7790010D7790010D7790010D7790010EF
:100190005D880010D7790010D7790010D77900104A
:1001A000D7790010D7790010D7790010D7790010CF
:1001B000D7790010D7790010D7790010D7790010BF
:1001C000D7790010D7790010D7790010000000000F
:1001D000000000000000000000000000000000001F
:1001E000000000000000000000000000000000000F
:1001F00000000000000000000000000000000000FF
:0402000000000000FA
:10020400014B43F82010704730B00C50014B53F8A9
:100214002000704730B00C5038B560B1114C6368A1
:10022400DBB2072B1AD06368DBB20F2B16D0082879
:1002340001D0102814D100294FF021040CBF202133
:100244000121094D8440EB6D814023EA04030B43F3
:10025400EB651AB141F2883001F01AFB002038BD79
:100264000120FCE700B0005000A00C5038B5EFF3BB
:100274001083012585F31088022001F033FA284603
:1002840000F04AFD2A4600210820FFF7C5FF4FF47D
:10029400FA5001F01FFB002000F0DEFA044628B9F2
:1002A40001F08AFA2946204600F09CFB104B114CC1
:1002B40000206367FFF7AAFF014620F07F4020F08B
:1002C4000F0028B941F4A04141F05001FFF798FF15
:1002D40023685B0706D52368074823F004032360DB
:1002E40001F0D6FA034A136843F004031360FEE7EF
:1002F40015C0500A00A00C50A0860100044B1A78C7
:1003040022B118B1DB7803700020704701207047D8
:10031400B1530020044B1A7822B118B15B7B0370EF
:100324000020704701207047B153002003280ED8E5
:10033400084A52F8203029B143F0060342F820302D
:100344000020704723F0060343F00403F6E701207E
:10035400704700BF5CB00C5003289DBF034B53F89B
:100364002000C0F340204FF0FF3070475CB00C50C9
:1003740003280CD8074B53F82020920707D553F8CD
:10038400202061F3000243F8202000207047012060
:10039400704700BF5CB00C5059B1032809D8064B14
:1003A40053F82030002013F0020318BF01230B7010
:1003B40070470120704700BF5CB00C5000F0A2BE33
:1003C400EFF3108072B6704780F31088704740BF17
:1003D400714A1368012B04D04FF0010313606F4A74
:1003E40010606F4A11606F484FF080510160704790
:1003F400EFF3108272B66848016889B34FF00001C8
:10040400016066480168B1B1EFF309811EF0100F75
:1004140008BF21ED108B21E9F00FEFF30B8441F8B5
:10042400044D4FF000041EF0100F08BF012441F8E2
:10043400044D006801605A490968096808C910C96F
:1004440084F30B88B1E8F00F002B18BFB1EC108BCC
:1004540081F309884EF0100E002B18BF2EF0100EF9
:1004640082F310884EF0040E70474F484FF47F011A
:10047400D0F8002041EA0201016070474849086051
:10048400EFF3148222F0040282F3148843494FF0FC
:100494000000086040494FF00100086042484FF4F2
:1004A4007F01D0F8002041EA020101603D484FF08D
:1004B400805101603D480068006800BF80F30888EF
:1004C40061B662B6704700BF20BF7047EFF3088083
:1004D4001EF0040F01D0EFF3098020E9F00FEFF3D1
:1004E4000B8440F8044D40F804ED40F804ED1EF090
:1004F400040F02D080F3098801E080F3088800B576
:1005040002F016FA5DF804EB4EF0040E7047EFF3B8
:1005140008801EF0040F01D0EFF3098020E9F00FEA
:10052400EFF30B8440F8044D40F804ED40F804ED7B
:100534001EF0040F02D080F3098801E080F30888DC
:1005440000B502F0E5F95DF804EB4EF0040E7047D7
:1005540010B4EFF3038410B47C4600B500B54DF835
:1005640004CD0FB4089C2DE9F00FEFF30B8410B405
:1005740000B5684602F00CFA01BC10BC84F30B8889
:10058400BDE8F00F0FBC5DF804CB5DF804EB10BCC4
:1005940010BC10BC70470000046800200C680020E8
:1005A4000868002004ED00E020ED00E008ED00E024
:1005B400104A1378FF2B05D10F4B9B68DB4303F0E4
:1005C400010313700D4A506B4BB10D4B1B681BB9E3
:1005D4000A23B0FBF3F070470A4B1B88F9E74FF48A
:1005E4007A72C0F30E03C00B5343504300EBD33075
:1005F400704700BF045A002000B00C5000000C509B
:10060400CC600020C8600020034610B51046002AC4
:1006140046D0002900F0F280612B32D8DFE803F0E5
:100624003AD431B5D141CE3144A5C8C53147314A58
:100634004D3150313154C1585C6064686C31313192
:100644007074BDB9787C31318031318431888C9FAC
:10065400AD31313131313190E794E3969931313113
:100664009B319D313131A131313131313131A7A744
:10067400AB31313131AF3131B3CBD7DBDF3231B7CD
:10068400EBA7FEE701244FF400130C6003604FF066
:10069400804005E0002301240B6004604FF0A0407B
:1006A40010BD00230424F7E700231024F4E70023FB
:1006B4002024F1E700234024EEE700238024EBE725
:1006C40000234FF48074E7E700234FF48064E3E7EA
:1006D40000234FF40064DFE700234FF48054DBE78A
:1006E40000234FF40054D7E700234FF48044D3E7AA
:1006F40000234FF40044CFE700234FF48034CBE7CA
:1007040000234FF40034C7E700234FF48024C3E7E9
:1007140000234FF48014BFE700234FF40014BBE719
:1007240000234FF48004B7E700234FF00074B3E7CD
:1007340000234FF00064AFE700234FF08054ABE791
:1007440000234FF00044A7E70123A4E70123022478
:10075400A2E70123A6E70123A7E70123ABE70123CF
:10076400AFE701234FF4007496E70123B5E70123B3
:100774004FF4002490E70123CBE70123D5E70123BD
:100784004FF4000488E70123CBE70023DFE70023CD
:10079400F6E700244FF4806377E700244FF40073F6
:1007A40073E700244FF400436FE7002440236CE711
:1007B4000024202369E70024102366E7002408238B
:1007C40063E70024042360E7002402235DE7002498
:1007D4004FF4801359E700244FF4002355E7002415
:1007E4004FF4802351E700244FF480334DE7002475
:1007F4004FF4807349E70024802346E708464FE717
:1008040007B5134A134902EBC002D1F89C30927821
:10081400022862F30303C1F89C300DF1070011D1E3
:10082400FFF76CFD10B10B238DF80730094A9DF8D2
:100834000710D2F8943061F30303C2F8943003B084
:100844005DF804FBFFF766FD0028EFD00D23EBE70E
:10085400A439002000A00C504FF0A0430D281A6AC0
:100864000DD842F6F173C34013F0010F0CBF0123FE
:1008740003238340134023FA00F0C0B270470123DE
:10088400F7E70000012803D002280ED000207047AB
:100894004FF0A043DB6A63B113F001000AD00648AD
:1008A400C3F3830303FB000070474FF0A0431B6BAB
:1008B400F1E71846704700BF00366E010120FFF7CC
:1008C400E1BF0220FFF7DEBF234BA1F1B771A1F511
:1008D4005851994210B53CD8012802D0022836D08C
:1008E400FEE71E4C1E4BD3F89420900758BFD3F854
:1008F40094204FF000005CBF42F00202C3F8942041
:10090400D3F89420D2075EBFD3F8942042F00102BA
:10091400C3F89420134A2368B1FBF2F123F00103D6
:100924002360236823F4005323F03C0343EA810348
:1009340043F4805343F00103236000F0A9FF0A202D
:1009440000F0A6FF2368002BFCDA002010BD064C43
:10095400C8E70120FAE700BF002A75152C000050F3
:1009640000B0005000366E013000005001460120F6
:10097400FFF7AABF01460220FFF7A6BF4FF0A0422F
:10098400D36A002023F00103D3627047012808D101
:100994004FF0A0431B6A03F00303032B01D1FFF7BD
:1009A4008DBF0148704700BF006CDC02021E08BF07
:1009B400012208B51046FFF7E9FF012A02D0022AF6
:1009C4000AD0FEE74FF0A0435B6ADBB2012BB8BF4D
:1009D4000123B0FBF3F008BD4FF080435B6903F0E3
:1009E4003F03F3E74FF0A04310B50D281B6A18D856
:1009F40042F6F172C24012F0010F0CBF0122032231
:100A040002FA00F411404FF0A04223EA04038140AB
:100A14000B43136220B90120FFF7C8FF024B186093
:100A240010BD0122ECE700BFC45700200028D8BF46
:100A3400002008B5CCBFFF230346002912DB002A9F
:100A440043F4E06340EA01200EDA4FF0A0414A6A21
:100A540022EA030303434B620120FFF7A7FF074B7E
:100A6400186008BD002A04DB43F4E04340EA023086
:100A7400EBE7002BF0D0FF23E7E700BFC4570020CB
:100A840070B50C46194D0646FFF7BAFE2B69FA20DD
:100A940023F004032B6100F0FBFE302C0DD8002161
:100AA4000846FFF79FFF302004220021B0FBF4F03A
:100AB400FFF7BCFF0024204670BD00F07DFE0C480B
:100AC40000EBC60043680B48EB616043FFF74EFF41
:100AD40004460028EFD1012106220846FFF7A6FFAD
:100AE40003212046FFF77EFFE4E700BF00B000507B
:100AF400A439002040420F002DE9F3411D4C1E4F44
:100B040004EBC0023B6B9278054662F317534FEA3D
:100B1400C0083B630DF107000E46FFF7EFFB10B171
:100B24000B238DF807309DF8071014F93520FB6C62
:100B34000A44002162F385030846FB64FFF752FF71
:100B4400302E00D9FEE7302004220021B0FBF6F05D
:100B5400FFF76CFFFFF712FF00F03AFE4444074B27
:100B64006268DA611A6942F004021A6102B0BDE8EF
:100B7400F08100BFA439002000A00C5000B0005048
:100B840070B5314E054633780C46012B43D9023BF0
:100B9400012B02D90125284670BD2C4B53F8212086
:100BA400FFF78FFE9042F5D8012905D82946204643
:100BB400FFF7A2FF002535E000210846FFF712FFEA
:100BC4002046FFF71DFEFA2000F062FEFFF7D6FE76
:100BD400302D0DD800F0FCFD00210846FFF702FF80
:100BE400042200213020B0FBF5F0FFF71FFFE1E7FE
:100BF40000F0E2FD16486843FFF7B8FE05460028FA
:100C0400C8D1012106220846FFF710FF0321284618
:100C1400FFF7E8FECEE7012909D901462046FFF790
:100C24002FFF05460020347000F032FEB3E78B42FC
:100C340003D14FF0FF321146D4E790210220FFF791
:100C44001FFF0028A6D1B1E7C05700209439002027
:100C540040420F00002808B511DD002926DB0128D9
:100C640000D139B13F2343F4E06340EA0120002A74
:100C74000BDA0EE00146F5E700200346F3E700290E
:100C8400FADA002A0CDB0020034643F4E04340EA8E
:100C940002304FF080414A6922EA030303434B6167
:100CA4000220FFF783FE024B186008BD3F23DEE7F6
:100CB400C457002010B5041E08BF01242046FFF7C6
:100CC40075FE012C02D0022C08D0FEE74FF0A043A1
:100CD4005B6A39B1C3F30223D84010BD4FF080439F
:100CE4005B69F6E7C3F30233F6E74FF080431A6813
:100CF40042F480221A601A685203FCD51A6822F45E
:100D040080221A6070470000024A136823F004032B
:100D14001360704700000440134A1368590721D434
:100D2400116800280CBF01234FF0FF3341F0040188
:100D340011604FF0804243F480131360116800295E
:100D4400FCD0094A116CC80606D5116C41F00201A9
:100D54001164116CC906FCD44FF080410A6822EA80
:100D640003030B60704700BF0000044007B56A46E8
:100D740001A9FFF749FCB0F1A04F04D1019B53B185
:100D8400012B17D0FEE7B0F1804FFBD1019B002B64
:100D9400F8D1094B00E0094BEFF31081012282F3F3
:100DA40010881A68009802431A6081F3108803B00F
:100DB4005DF804FB024BEFE704000040080000501C
:100DC4000C00005007B56A4601A9FFF71DFCB0F1FD
:100DD400A04F04D1019B53B1012B18D0FEE7B0F111
:100DE400804FFBD1019B002BF8D10A4B00E00A4B4A
:100DF400EFF31081012282F310881A68009822EA26
:100E040000021A6081F3108803B05DF804FB034B01
:100E1400EEE700BF04000040080000500C00005042
:100E24002DE9F8432A4B1B69002B4EDA4FF0A045FD
:100E34006B6B4FF00B096FF30F036FEA93336FEA99
:100E440083334FF400744FF48078224E6B63736FD6
:100E5400214F43F4C0037367736F43F040637367B8
:100E640047F6E073726F03EA44133A40134373671F
:100E7400032000F00DFD6B6B43F080436B636B6BE1
:100E8400002BFCDAA96BAA6B6B6B90B223F0804346
:100E9400B0EB114F6B634FEA114335BF1B1AC01AF5
:100EA4004444A4EB080435BF98B280B2A4B2A4B2FF
:100EB4003F2804D9B9F101094FEA5808D0D1A02834
:100EC40094BF00200120BDE8F8830120FBE700BFA8
:100ED40000000C5000A00C501F80FFFF704700283A
:100EE400D6BF0020FF230346002913DB002A08BFD6
:100EF4000122090201F4E061002A43F4E06340EABC
:100F0400010009DA4FF0A0414A6C22EA03030343CB
:100F14004B647047002A06DB120302F4E04243F4F8
:100F2400E0431043EEE7002BF3D0FF23EAE74FF052
:100F3400A0435A6C22F480225A645A6C61F3114221
:100F44005A64704708B50F20FFF73CFF0D20FFF7E8
:100F540039FF01200021FFF7EAFF02460C20FFF7CA
:100F6400BEFF00210C20FFF73DFDFFF7B7FF08BDD2
:100F7400F0280DD8902807D8302807D8182894BF0F
:100F840000210121FFF7FCBD0321FBE70221F9E762
:100F940001207047000000000000000000882A11B2
:100FA40000882A11FB06090030031000FD080A001E
:100FB40031031100000B0D0013021300020D0F008A
:100FC400130213000020704738B50020FFF744FCDB
:100FD400044628B900F0F0FB01212046FFF702FD8A
:100FE40001210C20FFF7FEFCFFF7ECFF01285BD08A
:100FF400022000F077FB0120FFF78EFE01F090FC49
:1010040000F0FCFB012001F0CFFC022001F0A8FC61
:10101400334B344A0120C3F8902001F0B5FC01F0B1
:10102400ABFC01F0B9FC00B1FEE72F4C2F48A368DC
:1010340043F00103A36001F0B3FC4FF08042136955
:1010440043F010031361EFF31081012383F310883D
:10105400274A137803B9FEE7013BDBB2137023B9C7
:10106400244AD36A23F00103D36281F31088A4686D
:1010740014F0010418D101F057FC64222146C82061
:1010840001F04AFC01F068FC4FF41652B0FBF2F098
:101094004FF47A72B2FBF0F2114901320B6F23F470
:1010A4007C7343EA02130B6702240425F020FFF744
:1010B4005FFF1148FFF75EFC002000F0E9FB0F4BD7
:1010C4001C800F4B1D80FFF779F921462846FFF756
:1010D40089FC2146BDE838400620FFF783BC00BFE9
:1010E40000A00C5000E2040000B00C5000B000401E
:1010F400B053002000000C5000882A11085A002028
:10110400065A002008B500F007F8BDE808400120A1
:1011140000F0C7B87047000010B5504B5B6813F47B
:10112400E06FC3F3022422D10123224603210220CB
:1011340000F030FD0123224619460A2000F02AFD62
:10114400012310220921082000F024FD012310228C
:101154000A21032000F01EFD012322460C210B204E
:1011640000F018FDFFF72EFF012842D1FEE7012C05
:101174003FD1234600220321052000F00BFD234626
:10118400002221460A2000F005FD234610220921F1
:101194000C2000F0FFFC234610220A21032000F05B
:1011A400F9FC234630220B21204600F0F3FC2346B1
:1011B40030220C21092000F0EDFC2146022000F031
:1011C40091FE2146042000F08DFE2146062000F009
:1011D40089FE2146072000F085FE2146082000F004
:1011E40081FE21460B2000F07DFE21460D2000F0FB
:1011F40079FE0123102262211E2000F0CBFC012382
:1012040010225E211A2000F0C5FC01231022612166
:101214001D2000F0BFFC012310225F211B2000F0E1
:10122400B9FC0123102260211C2000F0B3FC01232F
:10123400102263211F2000F0ADFC0123302240F274
:101244002111212000F0A6FCBDE81040012330222A
:101254004FF49071202000F09DBC00BF00B00050FE
:101264007FB50B4B0B4C0546002A18BF1C460123C7
:101274000E46CDE901030023204601A9039300F0A3
:1012840027F82046F2B2A9B200F007F904B070BD05
:1012940000000A500000084001220B201146FFF70D
:1012A400DFBF08B5FFF7F8FF08BD0000074B984201
:1012B40014BF402360238B4200D8FEE701F01F03D4
:1012C4004909138000EBC110704700BF00000A50A9
:1012D40073B50D46064600B9FEE74C68012C11D9DA
:1012E400112C0FD0404B24F400129A420AD003F57B
:1012F40080139C4206D024F4801203F500139A4212
:1013040000D0FEE7AB68022B00D9FEE730462988FF
:101314000DF10602FFF7CAFF034688B10122BDF8AA
:101324000600012C02FA00F20CD1596A11435962E9
:10133400996D11439965DA64DA65DA639A645A61DE
:1013440002B070BD112C0CD1596A11435962996DC8
:1013540011439965DA64DA65DA601A639A635A6448
:10136400EEE75CB9596A11435962996D1143996565
:10137400DA64DA65DA639A649A61E1E79A61696822
:10138400194CA14211D1D96A1143D9629A639A6462
:101394000122164982408E420BBF196A596D0A43D5
:1013A4000A430CBF1A625A65CAE7114CA14204D120
:1013B400D96A1143D962DA6306E00E4CA14205D121
:1013C400D96A1143D9629A635A64E1E70A4CA1428B
:1013D40003D1196B11431963D8E7084CA142D7D143
:1013E400196B11431963E6E70000111000000A505D
:1013F40000002110000031100000411000005110C5
:1014040007B500B9FEE70DF1060289B2FFF74EFFFA
:1014140080B10123BDF8061082698B401A438261B2
:10142400426A1A434262826D1A438265C364C36589
:10143400C363836403B05DF804FB13B500B9FEE72E
:101444000DF10602FFF732FFE0B10123BDF80620DB
:1014540041689340D140CC0716D4816AD140C90772
:1014640012D4416B01EA030433EA01010CD1016C8B
:101474008C4309D10369D340DB4303F00103181EF5
:1014840018BF012002B010BD016921FA02F2D2078F
:101494004CBF426802681340F1E737B5144600B9FF
:1014A400FEE7012A00D9FEE70DF10602FFF7FEFE72
:1014B400D0B10123BDF8061042688B40CA40D5075D
:1014C40018D4826ACA40D20714D4416B01EA0302D9
:1014D40033EA01010ED1056C05EA0201AA4309D1E0
:1014E40024B943690B43436103B030BD83690B43A3
:1014F4008361F9E70CB18360F6E7C360F4E70000A9
:1015040037B50DF1060204460D46FFF7CFFE10B3C2
:10151400194ABDF8063094421FD0C26DDA40D10793
:1015240019D5026DDA40D20700D4FEE7012202FA8F
:1015340003F3C3652946204601F0FEF929462046F7
:1015440000F0FAF8002806DB012308300B4A834038
:1015540043F00043936203B030BDC26CDA40D1075C
:10156400F9D5C269DA40D20700D4FEE7012202FAB3
:1015740003F3C364DEE700BF00000A5000000C5010
:101584000A4B70B59842044603D0094B98420AD0DE
:10159400FEE74E260025A9B220460135FFF7B0FF2D
:1015A400AE42F8D270BD2426F4E700BF00000A5012
:1015B4000000084007B500B9FEE70DF10602FFF789
:1015C40075FE024600284FD04368BDF80610CB4094
:1015D400D8070CD4936ACB40DB0708D40123506BA3
:1015E4008B4033EA000002D1106C834336D0136978
:1015F400CB4013F001001ED1D369CB4013F001009E
:1016040019D0936ACB4013F0010F536B23FA01F303
:1016140014D0D80703D5136CCB40DB0720D4536B0D
:10162400CB40D8071ED4136C1248CB4013F0010FE3
:1016340008BF4FF0FF3003B05DF804FBDB0703D5B0
:10164400136CCB40D8070FD4536BCB40DB070ED4BD
:10165400136C0948CB4013F0010FE9E71120EAE7C6
:101664000648E8E70648E6E74FF0FF30E3E70548B9
:10167400E1E700BF0000211000005110000031100C
:10168400000011100000411013B50DF106020446CC
:10169400FFF70CFE10B3124ABDF8063094420FD087
:1016A400C26DDA40D20708D5026DDA40D40700D4FF
:1016B400FEE7012202FA03F3C365002002B010BD65
:1016C400C26CDA40D107F8D5C269DA40D20700D437
:1016D400FEE7012202FA03F3C364EEE70120EDE71B
:1016E40000000A50022810B520D1114CE620E36A0C
:1016F40043F00103E36200F0CBF8E36A9A06FCD5F9
:101704001E2000F0C5F8E36A9B06FCD5EFF31081B8
:10171400012383F31088074A1378132B00D9FEE7BB
:101724000133137081F31088002010BD0120FCE701
:1017340000000C50B0530020064B984206D1A1F192
:10174400180083B2142B01D840B270474FF0FF3019
:10175400704700BF00000A500346084631B1142BFD
:1017640003D8183302480B8070470020704700BF2D
:1017740000000A50B9B1142815D80F280CD9103814
:101784000A4BC0B21A68072300EB400083401340A1
:10179400C3400B7000207047072885BF0838044BEE
:1017A400044BC0B2EEE70120704700BF0C000C50A0
:1017B40008000C5004000C50044B1A6942F0020259
:1017C4001A611A69002AFCDA704700BF00000C5045
:1017D400024A136923F002031361704700000C509E
:1017E400054B5B6B834238BF03F1FF33181A884201
:1017F4002CBF03200020704700000C50094BDA6A0C
:1018040092060CD5084900204A6842F000424A601A
:101814005A6842F000425A6001225A63704701201C
:10182400704700BF00000C500000044010B5FFF7E3
:10183400CBFBFFF7C7FB012803D0FFF7F1FA00B198
:10184400FEE701F09DF8FFF77DFBFFF7BBFB0128E6
:1018540001D001F07DF8FFF7B5FB013818BF012076
:1018640001F072F8032001F07FF8002001F068F81D
:10187400044640B9054AD36823F00103D36001F05C
:1018840077F8204610BD0124FBE700BF00B00050EC
:10189400034670B5B8B142F210754FF0E026AB4282
:1018A40084BFA3F51C5442F21073326998BF00241C
:1018B400184688BF103CD30708D400F00BF8234621
:1018C400002CECD101E000F005F870BD00F042F806
:1018D400F5E7000013B50190019B1A4C33B123685E
:1018E40023B1019BB3F1807F0CD9FEE70020FFF701
:1018F4005DF8154BB0FBF3F0019B2060002BF0D199
:1019040002B010BD019B002BFAD0104A136813F0EB
:1019140001030DD10E48D0F8FC1041F08071C0F8DD
:10192400FC105360136843F4003343F00103136065
:10193400019B22680549534348684A68121A9A422F
:10194400FBD3DDE70C5C002040420F00001000E0F8
:1019540000ED00E037B501904FF0E0204FF47A72CB
:101964004469019B6343B3FBF2F301930023816950
:1019740082698A42FCD025BFA51A5B195B185B18E3
:10198400019938BF9B1A994201D803B030BD114662
:10199400EEE707B50190019B13B903B05DF804FBB2
:1019A4004FF47A70FFF774FF019B013B0193F2E758
:1019B4008B10A3F14802F0B5D6B2042E49D8022EFA
:1019C40010D8254D0E2405EB820540F2B222A1EB7E
:1019D40086039BB2A3F59073032B3AD8DFE803F098
:1019E400091A27201D4D9B003D2440F221321D443D
:1019F400EDE70E2C4FF0080620D14FF47C512F68F0
:101A0400031BB3407B400B4010447B40001B2B6006
:101A140080B2F0BD0E2C4FF0000612D13F21EEE74C
:101A24000E2C4FF010060ED14FF47C11E7E70E2C6C
:101A34004FF018060AD14FF07C51E0E74FF4E06113
:101A4400DDE70721DBE74FF4E021D8E74FF0E06161
:101A5400D5E70020DDE700BF58B000500CEF004090
:101A6400002A31D02F2816DD3A282DDC0123174A0D
:101A74002A388340106F11F0200F14BF1843984385
:101A84001067124A11F0100FD16E14BF0B4321EAF4
:101A94000303D36670472638032815D80C4B11F07E
:101AA400200F53F8202014BF42F0100222F010023D
:101AB40043F8202053F82020C9064CBF42F0080206
:101AC40022F0080243F82020704700BF00B00C50F9
:101AD4005CB00C5038B14FF0A0429368064843F014
:101AE4000403936070474FF080425368034843F007
:101AF40008035360704700BF0030005000300040BE
:101B04003A2870B5CDBF002601260546A0F13C0554
:101B140004463046FFF7DEFF4EB9402C07DD094A84
:101B240052F8243061F30E3342F8243070BD05F1CD
:101B34008043013B50F8232022F00F02114340F868
:101B44002310F3E758AF0C503B28C8BF3C3843017F
:101B540052B1064A0020134433F810208A4202D0BE
:101B640001301028F8D17047014AF3E7AC4A00204D
:101B74000C4A00203B28C8BF3C38000108441AB175
:101B8400024B33F810007047014BFAE7AC4A0020CF
:101B94000C4A00202DE9F0471546044618B94FF0C9
:101BA400FF30BDE8F0873A28CDBF0027012706465D
:101BB400A0F13C063846FFF78DFF8046002F00F069
:101BC4005E81A4F1260003280AD8DFF80CC304F1CF
:101BD4008043263B5CF8232022F002024CF82320A9
:101BE400A1F590739BB20B2B04D82046FFF7E0FEBF
:101BF400014625E0A1F59C739BB2072B50D84A10EF
:101C04009C3AA1EB420189B2B1F59C7F43D040F2EA
:101C14003913994240F03A814FF0080E4FF47C5C3E
:101C2400A549A4F10E0351F8220003FA0EF3434030
:101C340003EA0C03434041F8223004F5297189B2C8
:101C44003A462046FFF780FF0F288146A7DC3A4634
:101C540029462046FFF704FF002F40F01981402C4D
:101C640040F31681954AE80652F824304FEA0939C0
:101C740023F4E04323F0180348BF43F00803A90604
:101C840048BF43F0100309F4E04949EA030342F86A
:101C94002430002085E74FF0000E4FF03F0CBFE7E3
:101CA400A1F5EC739AB2092A37D80522B3FBF2F3F3
:101CB400C3EB8332C3EB82020A4492B2A2F5EC7105
:101CC40088B2032814D84FF03F0E7D48C90050F85D
:101CD40023C0A4F10E028A4082EA0C020EFA01F13A
:101CE4000A4082EA0C0240F8232004F25521A6E7B8
:101CF400B2F5EE7F40F0CA803F217248DA00D0F896
:101D04006CC0A4F10E03934083EA0C0301FA02F2BF
:101D1400134083EA0C03C366E7E76FF4017A01EB2F
:101D24000A0293B2052B28D80323B2FBF3F26FF413
:101D34000179C2EB823302EB83030B449BB203EBC6
:101D4400090C1FFA8CFCBCF1020F00F29F80DB002F
:101D5400A3F581535C49A4F10E0E083B0EFA03F37C
:101D6400DFF878E151F822005EF82CC0434003EA22
:101D74000C03434041F82230B7E76FF4F87E01EBDF
:101D84000E039AB2092A2AD8B1F5FC7F16D2590853
:101D940013F0010F4D4B4FF03F004D4A18BF1A4648
:101DA400C9008840D2F800C0A4F10E038B4083EA36
:101DB4000C03034083EA0C03136096E707D040F258
:101DC400F913994207D100213F20424AEAE7102142
:101DD4004FF47C10F9E708214FF47C50F5E76FF4D9
:101DE400587C01EB0C039BB2052B3FF629AF03286B
:101DF4004CD804F18043A1F26232DFF8DCC0263B08
:101E0400042A15D8DFE802F0382A033123004FF4FE
:101E140040524FF0E04A4FF0005EDFF8C490D9F82A
:101E2400040020EA0A0040EA0E00C9F8040000E0B9
:101E340000225CF8230020F4E04002434CF8232005
:101E44005CF8232042F002024CF82320F8E64FF419
:101E540040524FF0E04A4FF0405EDEE74FF400524C
:101E64004FF0606A4FF0806ED7E74FF400524FF0A6
:101E7400606A4FF0C06ED0E74FF48052D9E7A1F505
:101E840096739BB2072B3FF6DBAEAEE60021D7E696
:101E940006F18046013E58F8263005F0300509F079
:101EA4000F0945EA090523F03F031D4345F04005AA
:101EB40048F82650EDE600BF48B0005058AF0C502B
:101EC40064B0005000B0005070B000507CB00050BE
:101ED40078B0005080B000505CB00C50004A002034
:101EE40000000C503A2838B5044625DD402816DC9D
:101EF4000025A0F13C012846FFF7ECFD01F18043E9
:101F0400013B50F823102A4621F05F0141F00F01F4
:101F140040F8231000212046FFF7A2FD0AE0084AFA
:101F240052F8203023F4E04323F00E0343F4E0435B
:101F340042F82030002038BD01460125DBE700BF10
:101F440058AF0C503A2870B50D4611460ADC4FF0D4
:101F5400A042936843F00403936080BB4FF0FF36C4
:101F6400304670BD4FF08042536843F0080353601D
:101F7400B0F13C03F2D040282EDD1E4B53F8202054
:101F8400C2F3C003D4064FEA0313C2F3023648BFB8
:101F940043F0200312F0040205D0002243F0400372
:101FA400402B22D01BD823B1302B08BF052318BFE8
:101FB400FF230B703146FFF7DDFD2880D0E7034691
:101FC40001220D4C03F18043013B54F8233003F00C
:101FD4000F0603F07003E3E70022084CF2E7502BEE
:101FE40005D0702B08BF0223E1E70123E1E70323B7
:101FF400DFE700BF58AF0C50003000500030004005
:102004003F000000003F000000003F00000000000F
:1020140000000000000000000000000000000000BC
:10202400000000000000000000000000B2002103D6
:1020340001030000000000003B024B0237020000D5
:10204400000000000000000000000000B3002203B4
:1020540002030000000000003C024B0238020000B2
:10206400000000000000000000000000B400230392
:1020740003030000000000003D024B023A0200008E
:10208400000000000000000000000000B500240370
:1020940004030000000000003E024B02390200006D
:1020A400000000000000000000000000000000002C
:1020B400000000000000000000000000000000001C
:1020C400000000000000000000000000F200040016
:1020D4000000000000000B000000000000000000F1
:1020E400000000000000000000000000F3000900F0
:1020F40000000000000003000000000000000000D9
:10210400000000000000000000000000F4000A00CD
:102114000000000000000A000000000000000000B1
:10212400000000000000000000000000F5000B00AB
:102134000000000000000B00000000000000000090
:10214400000000000000000000000000F6000C0089
:102154000000000000000300000000000000000078
:10216400000000000000000000000000F700030071
:1021740000000D0009000000000000000000000045
:10218400000000000000000000000000F800020051
:1021940000000E000B000000000000000000000022
:1021A400000000000000000000000000F900010031
:1021B40000000F000A0009000000000000000000F9
:1021C400000000000000000000000000FA000D0004
:1021D4000000100003000C000000000000000000DC
:1021E400000000000000000000000000FB000E00E2
:1021F40000000600010001000000000000000000D3
:10220400000000000000000000000000FC000F00BF
:10221400000001000C000C000000000000000000A1
:10222400000000000000000000000000FD0010009D
:10223400000003000000090000000000000000008E
:10224400000000000000000000000000FE00050087
:102254000600000000000000000000000000000074
:1022640000000000000000000000000052005401C3
:1022740000000000B202630200006A0100000000D6
:1022840000000000000000000000000053000000F7
:1022940000000000B302640200000000000000001F
:1022A4000000000000000000000000005400550180
:1022B4000000C601B40265029A016B0100003B02F2
:1022C40000002702000000000000000055004E013D
:1022D4000000C801B502660299015F0100003C02DA
:1022E40000002802000000000000000056004F011A
:1022F4000000C701B602670297015E0100003D02BB
:1023040000002902000000000000000057005001F6
:102314000000C401B70268029501680100003E0292
:1023240000002A02000000000000000058005101D3
:102334000000C501B80269029401690100003F026E
:1023440000002B02000000000000000059005201B0
:102354000000D401B9026A02920160010000400247
:1023640000002C0200000000000000005A0053018D
:102374000000D501BA026B02910161010000410223
:102384003A02000000000000000000005B000000B2
:1023940000000000BB026C020000000000004202CA
:1023A4003902000000000000000000005C00000092
:1023B40000000000BC026D020000000000000000EC
:1023C4000000000000000000000000005D000000AC
:1023D40000000000BD026E02000000000000D301F6
:1023E4003702210200000000000000005E001B0014
:1023F400B7010000BE026F020000000000000000F0
:102404003802220200000000000000005F002200E9
:10241400B8010000BF0270020000000000000000CC
:102424000000230200000000000000006000230000
:10243400B2010000C00271020000000000000000B0
:1024440000002402000000000000000061002100E0
:10245400B4010000C102720200000000000000008C
:1024640000002502000000000000000062001900C6
:10247400B5010000C2027302000000000000000069
:102484000000260200000000000000006300240099
:10249400B6010000C3027402000000000000000046
:1024A40000000000000000000000000064000000C4
:1024B4001A020000C40275020000000000000000BF
:1024C40000000000000000000000000065000000A3
:1024D40019020000C502760200000000000000009E
:1024E4000000000000000000000000006600000082
:1024F40000000000C60277020000000000004B024A
:102504000000000000000000000000006700000060
:1025140000000000C7027802000000000000000074
:10252400000000000000000000000000680000003F
:102534000000D401C802790200000000000000007D
:10254400000000000000000000000000690000001E
:102554000000D501C9027A0200000000000000005A
:102564000000000000000000000000006A000000FD
:102574004901C601CA027B02610362036303640367
:102584006503660300000000000000006B0000000B
:102594004801C801CB027C02610362036303640344
:1025A4006503660300000000000000006C000000EA
:1025B40000000000CC027D02610362036303640334
:1025C4006503660300000000000000006D000000C9
:1025D40000000000CD027E02610362036303640312
:1025E4006503660300000000000000006E000000A8
:1025F4004601C701CE027F02000000000000000077
:102604000000000000000000000000006F00000057
:102614004701C401CF028002000000000000000056
:102624000000000000000000000000007000000036
:102634000000C501D002810200000000000000007B
:102644000000000000000000000000007100000015
:1026540000000000D10282020000000000004302DA
:1026640000000000000000000000000072000000F4
:1026740000000000D20283020000000000000000FD
:1026840000000000000000000000000073000000D3
:1026940000000000D30284020000000000000000DB
:1026A40000000000000000000000000074000000B2
:1026B40000000000D40285020000000000000000B9
:1026C4000000000000000000000000007500000091
:1026D40000000000D5028602000000000000000097
:1026E4000000000000000000000000007600000070
:1026F40000000000D6028702000000000000000075
:10270400000000000000000000000000770000004E
:102714004D010000D702880200006201000044025B
:10272400000000000000000000000000780000002D
:102734004C010000D80289020000000000000000E3
:10274400000000000000000000000000790000000C
:102754004A010000D9028A02900163010000450287
:1027640000002F0200000000000000007A000000BA
:102774004B010000DA028B028F0164010000460263
:102784000000300200000000000000007B00000098
:1027940000000000DB028C02930165010000470287
:1027A4000000310200000000000000007C00000076
:1027B40000000000DC028D02960166010000480260
:1027C4000000320200000000000000007D00000054
:1027D40000000000DD028E0298016701000049023A
:1027E4000000330200000000000000007E00000032
:1027F40000000000DE028F020000000000004A0218
:10280400000034020000000000000000032AF0B5BC
:1028140004D803461A44934227D1F0BD8307F8D164
:102824004FF00133CCB25C43154603460F2D03F140
:10283400100311D802F00F031E4622F00F050544C1
:1028440003EB050C032EACEB06070BD803F00C03CB
:102854002B4402F00302DDE743E9044443E9024464
:10286400103DE3E73C60043EECE703F8011BD2E7CC
:10287400830730B546D08418844604E003F8011B6E
:102884009D0704D09C46A4456346F7D130BD013A68
:102894000244A2EB0C02032A29D9CCB20F2A04EB7E
:1028A400042404EB04442FD9A2F1100C03F1100505
:1028B4002CF00F0CAC44C3E90044C3E902441033C8
:1028C4006345F8D112F00C0F02F00F0E18D02EF061
:1028D400030CAEF104051A469C4442F8044B6245CD
:1028E400FBD125F0030404330EF003022344002A31
:1028F400CCD0C9B21A4403F8011B9342FBD130BDBA
:102904007246F4E70346C6E79646E0E70000000097
:102914005FF800F0A5C800105FF800F0AD3C0010AF
:102924005FF800F0E54900105FF800F00141001085
:102934005FF800F011C700105FF800F03587001051
:102944005FF800F0418F00105FF800F0A52E001032
:102954005FF800F0594200105FF800F09D3C001051
:102964005FF800F0F94100105FF800F0B52E001098
:102974005FF800F0313700105FF800F021410010DB
:102984005FF800F0712E00105FF800F05541001060
:102994005FF800F0B5C800105FF800F07141001056
:1029A4005FF800F0294200105FF800F0A541001024
:1029B8000348044B834202D0034B03B118477047C6
:1029C800F05B0020F05B002000000000064B074988
:1029D800C91A891048BF0131491003D0044B0BB103
:1029E80001481847704700BFF05B0020F05B0020EB
:1029F8000000000010B5064C237843B9FFF7D8FF54
:102A0800044B13B10448AFF300800123237010BDB9
:102A1800F05B0020000000007068011008B5054B4D
:102A28001BB105490548AFF30080BDE80840FFF732
:102A3800CDBF00BF00000000F45B002070680110EB
:102A480008B5064A0648136A43F00053136208F0B3
:102A5800BDF9044809F052FE002008BD00B000503E
:102A6800012B0010ED2B0010F0B52DED028B164652
:102A78001E4A044693420D4607EE903A85B015D992
:102A8800F8EE677A9FED1A7A4D2787EE878ACCB9D8
:102A980018EE100A0DF09CF9009702460B463046D6
:102AA80008F0B0F805B0BDEC028BF0BDB3F57A7F45
:102AB800B8EEE78A23BFDFED0F7A4B2788EE278A27
:102AC8002027E4E720460CF077FF2D1A012DE9D9DD
:102AD800044418EE100A02970DF07AF93246CDE94F
:102AE80000012946204608F05BF8DBE73F420F006B
:102AF8000024744900007A4410B5064C236A5B0030
:102B080006D4022013F068FD236A43F08053236241
:102B180010BD00BF00B0005001282DE9F0418046EB
:102B28000C4607DD4E68294831460CF093FD20B964
:102B380004F044FE0020BDE8F081314624480CF042
:102B480089FD10B904F0A6FEF4E7314621480CF0DF
:102B580081FDE8B9A0680CF015FBC0B218B10220DD
:102B680013F03AFDE6E7EFF31081012383F31088B1
:102B7800194A137803B9FEE7013BDBB2137023B996
:102B8800164AD36A23F00103D36281F31088D1E790
:102B980030460CF011FF04F1080704EB88044FF0ED
:102BA80020083518A74206D130460D490CF0C6FC5E
:102BB800C0E705F8018B2B7838680BB9A842F8D81C
:102BC8000CF0FAFE04370544ECE700BFB807011023
:102BD800BB070110BF070110B053002000000C50C4
:102BE800361D011010B5064C236A5B0006D402207E
:102BF80013F0F2FC236A43F080532362012010BDD6
:102C080000B0005008B507F02FFA084B0122032046
:102C180007490CF0E9F940F23B120649064808F06A
:102C2800DBF8BDE8084007F035BA00BFC607011059
:102C3800D6070110702701101713011030B599B08D
:102C4800044603A80D4606F081F907A806F09EF988
:102C58000BA806F0D7F9694806F016FD01460028CA
:102C680079D000231793038B1A070AD5172114AAC2
:102C780006F052FE28B140F2E3126149614808F0BB
:102C8800ABF824B12A460021204613F049FC294616
:102C98002046039B5C4AFFF7E7FE29462046049B33
:102CA8005A4AFFF7E1FE29462046059B584AFFF796
:102CB800DBFE29462046069B564AFFF7D5FE2946E5
:102CC8002046079B544AFFF7CFFE29462046089B1B
:102CD8004E4AFFF7C9FE29462046099B4C4AFFF792
:102CE800C3FE294620460A9B4A4AFFF7BDFE2946ED
:102CF80020460B9B494AFFF7B7FE294620460C9B06
:102D0800424AFFF7B1FE002329462046444AFFF70E
:102D1800ABFE29462046179B424AFFF7A5FEFCB9A1
:102D28009DF85230BDF85620BDF854103E4807F0C3
:102D380069FF9DF85330DB0730D524BB3B4807F0CB
:102D480061FF9DF85030052B33D0082B42D0002C62
:102D58004BD137482FE0102214A813F0E1FB90E77D
:102D680020460CF029FE291A0129E2D99DF8523093
:102D78002D4A0193BDF8563020440093BDF85430D5
:102D880007F00EFFD5E720460CF016FE291A012998
:102D9800D7D9264A204407F003FFD2E70CB92548C3
:102DA800CDE720460CF008FE291A0129C9D9214A85
:102DB800F0E724B9204807F025FF19B030BD2046B8
:102DC8000CF0FAFD291A0129F7D91B4A204407F00B
:102DD800E7FEF2E70CB91948EDE720460CF0ECFDE8
:102DE800291A0129E9D9154AF0E720460CF0E4FD33
:102DF800291A0129E1D90E4AE8E700BFDD070110C9
:102E080062270110E1070110EF0701100708011000
:102E1800170801102808011039080110520801107C
:102E28006C0801107508011090080110A108011024
:102E3800C8080110AD080110B8080110C008011039
:102E480008B5064807F0DEFE00210846FFF7F6FE43
:102E5800034807F0D7FE002008BD00BFD6080110C0
:102E6800361D01100020704770470000024A1368A1
:102E780001331360704700BF105C002070470000EA
:102E880008B5054B1B6A5B0002D5FFF7BBFE08BD02
:102E9800FFF7F4FFFBE700BF00B00050024B9A6B4E
:102EA80022F400729A63704700700850C31E042B06
:102EB80000D9FEE7064AD36823F4E0631B041B0C21
:102EC80043EA002040F0BF6040F40030D060704713
:102ED80000ED00E00F2A30B500D9FEE70F2900D930
:102EE800FEE7154BDC68C4F30224C4F10703E51CB4
:102EF800032B28BF0323062D4FF0FF3594BF002472
:102F0800043C05FA03F321EA0303A54022EA05027B
:102F1800A340002843EA0203ACBF00F16040074A1F
:102F28004FEA4313DBB2ABBF00F5614000F00F007E
:102F380080F80033135430BD00ED00E014ED00E0DC
:102F4800002800DAFEE701234109034A00F01F00C8
:102F5800834042F82130704700E100E0002800DAA1
:102F6800FEE701220649430900F01F008240203392
:102F780041F82320BFF34F8FBFF36F8F704700BF17
:102F880000E100E00138B0F1807F0BD24FF0E02380
:102F9800E021054A586182F8231000200722986131
:102FA8001A6170470120704700ED00E0002800DA40
:102FB800FEE701224309044900F01F008240403324
:102FC80041F82320704700BF00E100E0042801D049
:102FD80038B1FEE74FF0E022136943F004031361B0
:102FE80070474FF0E022136923F00403F7E7022348
:102FF80030B5426A80F82D3003681A61D0E902348E
:10300800234304690168234344690A6823438469A4
:103018006FF30E122343C4692343046A2343134303
:103028000B608368B3F5804F18D0C16C826CC1F314
:103038008703C9061BD43F2403F00703D2F8A8105E
:10304800DB009C4021EA0401C2F8A810816C4268A8
:10305800D1F8A8409A402243C1F8A8208269B2F565
:10306800806F18D0B2F5006F1FD0AAB1FEE73F24D9
:1030780003F00303D2F8AC10DB009C4021EA040102
:10308800C2F8AC10816C4268D1F8AC409A40224337
:10309800C1F8AC20E2E701224369B3F5807F06D08E
:1030A800B3F5007F2BD01BB1FEE70222F4E7012322
:1030B8000169A1F1800461426141C468A4F140053D
:1030C8006C426C418568102D1FBF80F86510194649
:1030D80013460A4680F8673080F866204FF00003F0
:1030E8004FF00102436406BF80F8654080F8641021
:1030F80080F8644080F82D2080F82C3030BD022301
:10310800D6E70000F8B52E4B02681344A02B04D96B
:103118002C4B1344A02B0FD9FEE73226DFF8B0C0A2
:10312800294BEFF31087012282F31088C56C1F2DFD
:103138004FEA950405D9FEE70226DFF898C0234B2D
:10314800EFE703EBC40595F804E0BEF1000F32D0B9
:1031580053F83420824203D187F310880220F8BD47
:1031680000221C791D4604BB01232B71142303FB89
:1031780002C31644920074B20360C26487F31088D5
:1031880021B12B68834201D0FFF731FF2860836AA1
:1031980004F160425B01DBB202F56142204682F82D
:1031A8000033FFF7CDFE0020D9E70132082A03F1EA
:1031B8000803D6D1D0E734442A7164B2DEE700BFF1
:1031C800F8EFF7AFF8EFFFBF545C0020145C002065
:1031D800081008500810004038B5134A836C934211
:1031E80003D0124A934208D0FEE73221104AC46C39
:1031F8001F2C4FEA940303D9FEE702210D4AF6E794
:10320800EFF31084012585F3108802EBC30552F80B
:103218003320904205D1581840B2FFF79FFE002393
:103228002B7184F3108838BD00100850001000403E
:10323800545C0020145C002038B50446002853D0A4
:10324800836833F0100203D0B3F5804F00D0FEE757
:10325800E36833F0400300D0FEE7236933F08003CE
:1032680000D0FEE7636933F4807203D0B3F5007FC2
:1032780000D0FEE7A36933F4806203D0B3F5006F92
:1032880000D0FEE7E36933F0200300D0FEE7236AAD
:1032980033F4405300D0FEE763683F2B00D9FEE7C4
:1032A8002268134B13448C2B13D81422B3FBF2F36C
:1032B8009B00E3640F4BA36400212046FFF722FF25
:1032C800054698B92046FFF792FEFFF785FF284686
:1032D80038BD094B13448C2BEED81422B3FBF2F300
:1032E8009B00E364054BE6E70125F0E70225EEE7DE
:1032F800F8EFF7AF00100850F8EFFFBF00100040DC
:1033080010B50446002851D00268136823F0010361
:1033180013600268264B13448C2B2FD81421B3FB5F
:10332800F1F39B00C364234BA36400231360D4E927
:10333800121303F01C02012393404B60E36CA16C51
:103348000F2B4FEA930224D83F205B00D1F8A82026
:1033580003F0380300FA03F322EA0303C1F8A830A4
:103368002046FFF739FF0020C4E90D00C4E90F002B
:10337800606484F82C0084F82D0010BD0E4B1344B3
:103388008C2BD2D81421B3FBF1F39B00C3640B4BF5
:10339800CAE702F003033F22D1F8AC00DB0002FACF
:1033A80003F320EA0303C1F8AC30D9E70120E4E7CE
:1033B800F8EFF7AF00100850F8EFFFBF001000401B
:1033C80038B590F82D300446022B03D0042343640B
:1033D800012038BD01250268136823F00E0313602D
:1033E8000268136823F001031360D0E9122303F085
:1033F8001C0305FA03F35360FFF7EEFE002384F87D
:103408002C30236C84F82D500BB1204698470020AF
:10341800DFE7000030B5154B846C9C421BD18368F4
:10342800102B02D0B3F5804F08D10B68104C03F174
:103438006045A54298BF03F120630B60836833F4AD
:10344800804308D113680A4803F16044844298BF56
:1034580003F1206313600B6803F17042B2F1805FDF
:103468003CBF03F1A0430B6030BD00BF001000401B
:10347800FEFF07002DE9F3414FF6FF75036D026863
:103488009D4228BF1D465B1B03658565136890F840
:10349800667023F0010390F867801360D0E9172362
:1034A8000E46CDE90023D0E9122303F01C010123C5
:1034B80004468B405360036869465D6001AAFFF7C4
:1034C800A9FFDDE90003A168226810290BBF9360FA
:1034D8009060236822680CBFD860D36094F8643089
:1034E80023B1E36D05FA07F73B44E36594F86530CB
:1034F80023B1236E05FA08F52B44236636B1A26B77
:1035080023685AB11A6842F00E021A6022681368DA
:1035180043F00103136002B0BDE8F0811A6822F09D
:1035280004021A602268136843F00A031360EDE787
:103538002DE9F8431E4690F82C300446012B8846A6
:10354800174610D0012380F82C3090F82D30012B2D
:103558005FFA83F904D14946FFF7D4FD054630B137
:10356800002384F82C3002252846BDE8F88302237E
:10357800494684F82D30C4E914666064C4E91787A5
:103588002046FFF777FFEFE770B504460421866C05
:10359800E26C356802F01C02036891402942186801
:1035A80012D0410710D51A6892065EBF1A6822F039
:1035B80004021A60D4E9121303F01C020423934096
:1035C8004B60A36B23BB70BD0221914029422AD0D6
:1035D80010F0020F27D0716023681A68900609D48A
:1035E8001A6822F00A021A60236DABB10121204645
:1035F800FFF740FF002384F82C30636B002BE2D0E8
:1036080022681268910603D494F82D20012ADAD191
:103618002046BDE8704018472046FFF7DDFD01232E
:1036280084F82D30E6E7082101FA02F22A42CAD0CE
:103638000207C8D501251A68204622F00E021A6032
:10364800D4E9122303F01C0305FA03F353606564FD
:10365800FFF7C2FD002384F82D5084F82C30E36B6B
:10366800B0E70000014B1868FFF78EBF545C0020DC
:10367800014B9868FFF788BF545C0020014B18691C
:10368800FFF782BF545C0020014B9869FFF77CBFAD
:10369800545C0020014B186AFFF776BF545C002089
:1036A800014B986AFFF770BF545C0020014B186B00
:1036B800FFF76ABF545C0020014B986BFFF764BFAB
:1036C800545C0020014B1868FFF75EBF145C0020B3
:1036D800014B9868FFF758BF145C0020014B18692C
:1036E800FFF752BF145C0020014B9869FFF74CBFED
:1036F800145C0020014B186AFFF746BF145C0020D9
:10370800014B986AFFF740BF145C0020014B186B0F
:10371800FFF73ABF145C0020014B986BFFF734BFEA
:10372800145C0020000000000121F8B5084612F0E2
:103738004FFF254B0446984240D821A3D3E90023E4
:103748001420A4FB00010CF073FE0A250021461C7E
:103758001E480023E4FB05011D4A0CF069FE0746DC
:1037680005461C4800232246A7FB00010CF060FE1A
:1037780042F6F82398424FEAC61619D97D1E4FF42F
:10378800FA700FA3D3E90023A4FB00010CF050FE4C
:10379800AD0225F07F4525F46005013025F47F75DD
:1037A8000D4B304325F00305284358600020F8BD31
:1037B80042F22733984298BF7D1CE0E70120F6E7E4
:1037C80000CA9A3B00000000000E270720A107004E
:1037D80040420F0000CA9A3B00C00050202A2DE941
:1037E800F84306460C46154630DCC0F3C40808EB1F
:1037F8000203202B2ADC970728D110F01F0925D1B6
:10380800254A1420D2F89470360AFB1C0E2B38BFB8
:103818000E230F2B28BF0F23C2F8943012F0C4FEDA
:103828001E4AB300136013681D4943F00103136077
:103838004B4669439068C0070CD590688B4240F0AE
:10384800010090600AD3144BC3F8947000252846F1
:10385800BDE8F8838B42F0D20133EBE7114A08F058
:103868001C0000EB461025F00301024421448C4261
:1038780003D1094BC3F89470E9E752F8043B0434C8
:10388800180A04F8043C04F8030C180C1B0E04F87E
:10389800020C04F8013CEAE700A00C5000C00050FC
:1038A80000DC050030C000500FB404B070470000C1
:1038B800B1288BBFB238523880B280B28CBF1C4B53
:1038C8001C4B3F2810B529D903F58073403880B2C6
:1038D8000122824018481C1D02601848B129046062
:1038E80018698CBFB239523942EA00028CBF89B2DA
:1038F80089B21A618CBF0E4B0E4B3F2913D903F5C1
:103908008073403989B201228A400D49181D0A6026
:103918000C49086019690A431A6110BD1F28D7D9D4
:1039280080332038D3E71F29EDD980332039E9E7E0
:103938000000084000000A509C5C0020A05C0020A9
:10394800945C0020985C0020F0B51C4B1B68002B91
:1039580032D01B491B4C09682468CE434FF0070C32
:10396800E7431A680A431A60174A1268156825431C
:1039780015601D6825EA01051D6015683D40156044
:1039880040FA0CF515F0010F1D6814BF0D433540C2
:103998001D601568BCF1010C45EA04051560ECD200
:1039A800106807401760186806401E6010680443D6
:1039B80014601A6811431960F0BD00BF985C0020BC
:1039C800945C00209C5C0020A05C002070B504463C
:1039D8000D460646331B9D4200DC70BD16F8010BF0
:1039E800FFF7B2FFF6E7421E0020531C02D012F880
:1039F800013F03B97047A3F13001C9B2092903D8BF
:103A08004BB203EB0010F0E7A3F16101052902D8DE
:103A1800573B5BB2F5E7A3F141010529EAD8373BEB
:103A2800F7E72DE9F341002504460F461646A84658
:103A380023780BB1AE4203DC284602B0BDE8F08122
:103A48008DF8043063788DF8053033B9013401A856
:103A5800FFF7C9FF78550135EAE78DF8068002348B
:103A6800F5E7000010B50A4B0A495A680A4BD2B26A
:103A7800062A88BF0B46094C236001F003FB236824
:103A880002460021184612F04BFD054A026010BD9F
:103A980000B00050002A4020C0FD4020A45C002057
:103AA8007878454508B513460A4601460348006834
:103AB80001F0C4FA003818BF012008BDA45C00203A
:103AC80008B513460A4601460348006801F0C8FADB
:103AD800003818BF012008BDA45C002070B504465A
:103AE80016460D4619B3FD2821D8022012F074FDA0
:103AF800104B1B680BB9FFF7B5FF32462946204625
:103B0800FFF7D0FFEFF31081012383F310880A4AEF
:103B1800137803B9FEE7013BDBB2137023B9074AF8
:103B2800D36A23F00103D36281F3108870BD0120AA
:103B3800FCE700BFA45C0020B053002000000C503C
:103B4800F8B5054617460E4619B312B3FD2820D816
:103B58001D4C022012F040FD23680BB9FFF782FFCD
:103B680023681A4C1A681A4B9A4214D0EFF3108142
:103B7800012383F31088237803B9FEE7013BDBB206
:103B8800237023B9134AD36A23F00103D36281F364
:103B980010880120F8BD3A4631462846FFF790FFC5
:103BA800EFF31081012383F31088237803B9FEE72C
:103BB800013BDBB2237023B9064AD36A23F0010321
:103BC800D36281F31088E5E7A45C0020B05300209D
:103BD8007878454500000C500268034BC3F8002173
:103BE8004268C3F8042170470000044007B502206A
:103BF80012F0F2FC0021022000F0F8F900210190F7
:103C080001A800F009FAEFF31081012383F310886B
:103C18000A4A137803B9FEE7013BDBB2137023B9F4
:103C2800074AD36A23F00103D36281F3108800386E
:103C380018BF0120404203B05DF804FBB0530020D8
:103C480000000C5007B5022012F0C6FC002102202B
:103C580000F0CCF90021019001A800F0F2F9EFF38F
:103C68001081012383F31088084A137803B9FEE70B
:103C7800013BDBB2137023B9054AD36A23F0010371
:103C8800D36281F3108803B05DF804FBB0530020C1
:103C980000000C50032012F093BC0146042012F0DF
:103CA80047BC000000232DE9F04F89B00693BE4BB6
:103CB80002929E680D4616F0010640F06F81FFF7EC
:103CC80095FF002840F06D81022012F085FCEFF38B
:103CD8001080012181F31088B44B1A6942F0020266
:103CE8001A61B34A117080F310881A69002AFCDA45
:103CF8004FF08042136923F0030343F0010313617B
:103D0800D2F814A0CAF3023BBBF1070F05D04FF05D
:103D1800FF310722084612F073FC00229146A54F96
:103D28000392D7F8141101206FF3DC4141F400210C
:103D3800C7F81411D7F8141141F00051C7F814113D
:103D4800D7F8141121F48031C7F81411D7F81411D9
:103D5800C7F81411D7F814116FF30F01C7F814112D
:103D6800D7F8141141F0C801C7F81411D7F8141185
:103D780041F40031C7F8141112F0B6FB039AD7F8D2
:103D880018110029FBDADFF85882D7F81841D8F85B
:103D9800001024F0004481B1042012F011FC41F21B
:103DA8008731A04234BF221A021B8A42069004D9E6
:103DB80009F10109B9F10A0FB2D1002321467E4861
:103DC800FFF772FDB9F10A0F26D17C4A1378013347
:103DD800DBB2042B13701BD00023BBF1070F08D0F4
:103DE8005A46CAF302210AF03F00039312F008FC76
:103DF800039B4FF000096E4A714F82F80090012230
:103E080013BBEFF3108182F310883B7853B9FEE7B8
:103E18000023C8F80030DFE72146032012F088FBB2
:103E28000123DAE7013BDBB23B7023B9654AD36A69
:103E380023F00103D36281F31088FFF703FF6FF0CB
:103E4800010009B0BDE8F08FC82300921946FA2294
:103E58005D48FFF729FD15B10225C8F80090D8F88C
:103E68000010029BDFF87CA199423CBF0131C8F8E1
:103E780000100129DAF80030DFF86C917DD90229A9
:103E8800D9F8002056D101260132224452084FF0B9
:103E9800000BC9F8002021464C48CDE9006BFFF71C
:103EA80003FDD9F80000CAF800400690FFF7F5FEB8
:103EB80099ED007ADFED466AB8EE477AC6EE877A62
:103EC8009FED447A012367EE877A07200DF11602E9
:103ED8000DF11501ADF81630CDED077A8DF815B056
:103EE800FFF72EFE9DF815303BB93B48FFF7DCFC89
:103EF8000422022006A9FFF7F1FD07A904220120E8
:103F0800FFF7ECFD032012F05BFB0446042012F0DF
:103F180057FB0023009302462146D8F800302F486B
:103F2800FFF7C2FCEFF31081012383F310883B787D
:103F38002BBBFEE7A24210D2A11AFA2916D9934246
:103F480014D9991AFA2911D90D2102EB4202083223
:103F580001FB04220326120999E707D9111BC82976
:103F680004D9934202D2D11AC829ECE7C2EBC202A3
:103F7800043222440226D20889E7224687E7013B19
:103F8800DBB23B7023B90F4AD36A23F00103D36233
:103F980081F31088FFF756FE284652E74FF0FF30AE
:103FA8004FE76FF002004CE700B00C5000000440EF
:103FB800B85C002000000940FB080110B05C00203C
:103FC800B053002000000C501D09011046090110D3
:103FD800001B374C000048438A0901109209011060
:103FE800B45C0020A85C0020AC5C002001280BD148
:103FF80003290BD8064803E0022800D0FEE705484D
:10400800182303FB010070470129F5D900207047E8
:10401800002008500020004018B1016849B9042068
:1040280070470329FBD81823594301F1A04101F532
:1040380002214869002802DB00F00F0070470020C9
:10404800704710B1016841B97047032909D818238E
:10405800594301F1A04101F502214B6943F00043A6
:104068004B61704700232DE9F0414FF0402C074683
:104078004FF001081846154ECCF8803007F1040EB1
:1040880099420BDC00214FF040238A4208BF0246C8
:10409800C3F88410C3F88020BDE8F0811AB122FA71
:1040A80003F4E4070FD557F833509C0004F140247B
:1040B800354025605EF8335008FA03F4CCF88440A4
:1040C8002043CCF888500133DAE700BFFCFF070033
:1040D80008B501F023F8074B02689A4207D1BDE8FA
:1040E800084041680022C9080830FFF7BBBF00201C
:1040F80008BD00BF4843545008B5064A01209369DB
:1041080023F4E77343F4A773936112F0EDF90020E9
:1041180008BD00BF00A00C5008200A4A136A116AA3
:1041280023F4804321F00301116223F03C03064984
:1041380043F0CB03C1F88C00C1F890000020136253
:10414800704700BF00A00C5000300050054B9A6E1D
:1041580020B142F0200200209A66704722F0200227
:10416800F9E700BF00A00C5038B50B4C0020236ABB
:10417800002B0FDB12F004FA4FF47A75236A002B38
:1041880005DB4FF47A7012F0FBF9013DF6D1206A95
:10419800C043C00F38BD00BF00A00C50054BDA6902
:1041A80020B142F001020020DA61704722F00102DA
:1041B800F9E700BF00A00C5038B50B4CE369002BA1
:1041C8000FDB0A4B5D6BE369002B06DB42F21071D3
:1041D800284612F029FA0028F5D0E069C043C00F3C
:1041E80038BD0020FCE700BF00A00C5000000C50B8
:1041F80008B530B9094A136823F001031360002099
:1042080008BD022804D1FFF7D7FF012800D1FEE737
:10421800024A136843F00103F0E700BF00A00C5006
:10422800084B984205D1084A536843F0020353608B
:104238007047064B9842FBD1034A536843F0040386
:10424800F5E700BF0040095000A00C5000B0004046
:10425800214B5A6922F03C0242F004025A611A6B5F
:1042680042F00F021A631A6B6FF30F1242F4EE4218
:1042780042F070021A631A6B22F0706242F0C06258
:104288001A639A6A22F07F0242F006029A625A681A
:1042980042F080025A60DA6C22F47C4242F4806276
:1042A800DA641A6D22F47C4242F480621A655A6D0F
:1042B80022F0700242F030025A659A6D22F07002C4
:1042C80042F030029A651A6F42F47C721A674FF016
:1042D8000112C3F88C20704700A00C5038B5304C40
:1042E8000E222146062000F09BFB002853DD012307
:1042F8002C4A04F8013C20786378D56A9B0740066D
:1043080000F0606003F08043034325F09C400343C2
:10431800D362D2F89830E078234D60F30303C2F8F3
:10432800983053692079611E60F38D2353616B685F
:104338006079DBB24000072B00F01E002CD06B68C0
:10434800DBB20F2B28D0CB79D46D5B0203F4F0538A
:10435800034324F01E1020F4F0500343087A40046D
:1043680000F4F0100343D3650F4A5368DBB2072B00
:1043780011D05368DBB20F2B0DD00A484B7A426A32
:1043880003F0070322F0270213438A7A520102F04E
:1043980020021343436238BDD36D23F01E03E1E7C7
:1043A800B253002000A00C5000B0005002681368FF
:1043B80023F4907313600268936823F001039360F9
:1043C800202380F87230002303667047704700008E
:1043D80038B5134690F871200446202A33D10029B5
:1043E8002FD0002B2DD090F87020012A2BD001223D
:1043F800002580F870202122A0F85230C16445675A
:10440800124980F87120826EA0F850305163826E94
:104418000F499163826E0F49D163826E15640268F9
:10442800C16C2832806EFFF783F840222846236843
:104438001A62226884F87050936843F0800393608E
:1044480038BD0120FCE70220FAE700BF57450010FD
:1044580089450010DB45001038B5134690F87220E6
:104468000446202A38D1002934D0002B32D090F8C5
:104478007020012A30D00122002580F870202222E5
:1044880041654567154980F87220C26EA0F858301A
:104498005163C26E12499163C26E1249D163C26EF2
:1044A80015640168426D2431C06EFFF741F8284653
:1044B800226884F87050136843F48073136022688C
:1044C800936843F0010393602268936843F04003C4
:1044D800936038BD0120FCE70220FAE793450010FD
:1044E800D1450010DB4500102DE9F0411746D0E911
:1044F8001A24054688461E4683B1002314461946E9
:1045080000228020C4E90522C4E90320C4E9073158
:104518002046A660FEF7F4FE20B1FEE720234FF404
:104528008051EDE72046FEF787FE00B1FEE74146E1
:104538002846BAB21EB9FFF78FFF20B1FEE7FFF792
:1045480047FF00B1FEE70020BDE8F081704708B5DD
:1045580003461B68006B1B6813F020030CD102682C
:10456800A0F85230936823F08003936002681368C0
:1045780043F04003136008BDFFF7E8FFFBE770470F
:1045880008B5006BFFF7FBFF08BD08B503461B68BD
:10459800006B1B6813F0200313D10268A0F85A308F
:1045A800136823F4807313600268936823F001038F
:1045B80093600268936823F040039360202380F897
:1045C800723004F0E7FB08BD08B5006B04F0B6FBD9
:1045D80008BD08B5006B90F87130212B0DD1036828
:1045E8009A68120609D50022A0F852201A6822F00B
:1045F800C0021A60202380F8713090F87230222BA4
:1046080008D103689B685B0604D50023A0F85A30DC
:10461800FFF7CCFE436F43F01003436704F0D4FB6D
:1046280008BD704710B502680446136823F0C0033C
:1046380013600268936813F0800310D0936823F026
:1046480080039360836E53B1094A1A64806EFEF743
:10465800B7FE10B1A06E036C9847002010BDA4F8F7
:1046680052306366202384F87130FFF7DAFFF4E7ED
:104678007D46001008B50023006BA0F852302023B7
:1046880080F87130FFF7CDFF08BD704710B502689C
:104698000446136823F4907313600268936823F048
:1046A800010393600268936813F0400321D0936874
:1046B80023F040039360C36E53B1114A1A64C06E6D
:1046C800FEF77EFE10B1E06E036C9847002010BD27
:1046D8000F22A0F85A30436503681A62026893698A
:1046E80043F008039361202384F87230FFF7CDFF6D
:1046F800ECE7A0F85A3043650F231362F3E700BFD5
:104708000D47001008B500230F22006BA0F85A309F
:1047180003681A620268936943F0080393612023CF
:1047280080F87230FFF7B1FF08BD0000F0B5274AE6
:1047380041680346914200D9FEE7826832F0C051D1
:1047480000D0FEE7C16831F4405100D0FEE7016AAD
:1047580031F4006100D0FEE7056935F4806103D0CB
:10476800B5F5C06F00D0FEE75C6934F00C0100D1EC
:1047780004B9FEE7996931F4407100D0FEE7D969C0
:1047880031F4804000D0FEE71E682A432243376890
:104798000A430F4939400A4332601968DC684A689D
:1047A80022F4405222434A601C689A69A1681D6A33
:1047B80021F430612A430A43A2601968CA6A22F0C8
:1047C800F002CA62C3E91800F0BD00BF80969800E5
:1047D800F3B9FFE7436AFF2B00D9FEE7DA070AD5EA
:1047E800816A31F4003300D0FEE70268536823F48D
:1047F80000330B435360436A9B070AD5C16A31F4FF
:10480800803300D0FEE70268536823F480330B43FB
:104818005360436A59070AD5016B31F4802300D0ED
:10482800FEE70268536823F480230B435360436A0E
:104838001A070AD5416B31F4004300D0FEE702683D
:10484800536823F400430B435360436ADB060AD5DD
:10485800816B31F4805300D0FEE70268936823F43B
:1048680080530B439360436A99060AD5C16B31F4B0
:10487800005300D0FEE70268936823F400530B430B
:104888009360436A5A0615D5016C31F4801300D041
:10489800FEE70268536823F480130B435360036CEC
:1048A800B3F5801F06D10268416C536823F4C00336
:1048B8000B435360436A1B060AD5816C31F400230D
:1048C80000D0FEE70268536823F400230B435360CB
:1048D8007047000010B50446002870D00268394BB4
:1048E8009A4202D1082011F027FE2268364B9A42DC
:1048F80002D1092011F020FE2268344B9A4202D1DD
:104908000A2011F019FE2268314B9A4202D10B207D
:1049180011F012FE94F8713003F0FF0223B920461B
:1049280084F87020FFF752FD2423226884F8713040
:104938001368204623F001031360FFF7F7FE636A4C
:1049480013B12046FFF746FF2268536823F49043CB
:1049580053602268936823F02A03936022681368DF
:1049680043F00103136061681A4B2268B3FBF1F34B
:104978000F2B19D8184BB3FBF1F3116841F48041A0
:1049880011602168CA6A22F00F0242F00202CA626C
:1049980022680020D3602023606784F8700084F8C0
:1049A800713084F8723010BD116821F480411160B3
:1049B8002168CA6A22F00F0242F00602E7E70120E6
:1049C800F1E700BF00500850006008500050004058
:1049D80000600040006CDC0200D8B80510B5FEF796
:1049E800A3FE0446A8B911F0DFFD0A2011F0DCFD92
:1049F80020222146094811F093FD20224FF48070AF
:104A08000649FEF7EBFE202805D1FFF767FC204694
:104A180010BD0120FCE70220FAE700BFBC5C0020C3
:104A28002DE9F04104461046914A566811B9002014
:104A3800BDE8F0810028FADD8E4B1D78002DF6D0F8
:104A4800042C79D10D28F2DD546893F804C0E4B23F
:104A5800072C874C18BF52686268DFF81482D2B2FC
:104A6800072A18BF62685A79120202F470624CEA87
:104A7800020CA1F800C09D795A792D0105F01005A6
:104A880045EA12158D80DF799A79FF0107F4786776
:104A980047EA52074F801C7ADA79E40004F01804D8
:104AA80044EA5214CC805A7A1E7A920102F47C624B
:104AB80042EA96020A819E7A93F809E0B60006F067
:104AC8003C0646EA9E1605EB850504EB840406EBD6
:104AD800860605EB850504EB840406EB8606AD0027
:104AE800A400B6008D80CC804E81D8F804E05FFA2F
:104AF8008EFEBEF1070F06D0D8F804E05FFA8EFEEE
:104B0800BEF10F0F08D193F811E0CEF3C00E81F873
:104B18000CE05B7C1B094B73BCF1000F87D0002DA8
:104B280085D0002F83D0002C81D0002A3FF47FAF9E
:104B3800002E3FF47CAF7BE7062C79D10D287FF758
:104B480076AF5468E4B2072C494C18BF52686268C3
:104B5800D2B2072A03D06268D2B20F2A03D1C6F3B1
:104B68000722042A1CD0424C6268D2B2072A00D01D
:104B7800626805F007050D701A78C2F3C0044C701E
:104B88005C78120904F00F0524098A70CD700C7145
:104B98005C7B24090C739C7B04F00F044C7315E0B8
:104BA8001A7D02F007020A701A7DC2F3C0024A7029
:104BB8001A7D12098A705C7D04F00F04CC705C7D4C
:104BC80024090C711C7FC4F3C3040C73284D6C6852
:104BD800E4B2072C0FD06C68E4B20F2C0BD09C7891
:104BE80024098C71DC7804F00F05CD71C4F302152B
:104BF800E4090D724C721E4C6568EDB2072D03D0A6
:104C08006568EDB20F2D07D16568EDB2072D03D0A9
:104C18006468E4B20F2C03D19B7803F00F034B7147
:104C2800002A3FF404AF0B7B002B3FF400AFFFE6F4
:104C3800152C7FF4FCAE07287FF7F9AE9A7A120993
:104C48000A70DA7A02F03F024A701A7BDC7A920024
:104C580002F01C0242EA94128A701A7BD208CA70C7
:104C6800DA7B9B7B1B0943EA02130B71E0E600BF6A
:104C780000B00050BC5C0020704770470022914B88
:104C880070B5C3F88420BFF34F8F5A6922F480327D
:104C98005A61BFF34F8F43F6E074D3F88020C2F314
:104CA800C900C2F34E325201014602EA040646EA3E
:104CB80081750139C3F87452F9D2203A12F1200FE4
:104CC800F2D1BFF34F8FBFF36F8FBFF34F8FBFF397
:104CD8006F8F5A6922F400325A610022C3F85022B9
:104CE800BFF34F8FBFF36F8FBFF35F8F596A21F404
:104CF80080315962D3F8941021F00101C3F894105F
:104D0800BFF34F8FBFF36F8F114610466D4BC3F83B
:104D1800982001320C2AC3F8A000F8D1D3F8C0209B
:104D2800694822F0FF0242F02202C3F8C020D3F8FB
:104D3800C02022F47F4242F48842C3F8C020D3F84E
:104D4800C02022F47F02C3F8C020D3F8C02022F08C
:104D58007F4242F0EE42C3F8C020D3F8C42022F0CC
:104D6800FF0242F03302C3F8C420C3F898104FF68C
:104D7800E1720721C3F89C10C3F8A0200122C3F8F0
:104D8800982002F10112C3F89C20504AC3F8A020D1
:104D98000222C3F898204E4AC3F89C204D4AC3F813
:104DA800A0200322C3F89820C3F89C004A48C3F8FF
:104DB800A0000420C3F898004848C3F89C0048485D
:104DC800C3F8A0000520C3F898004648C3F89C0023
:104DD8004548C3F8A0000620C3F898004348C3F824
:104DE8009C004348C3F8A000C3F898104149C3F891
:104DF8009C1001F5432101F6E171C3F8A0100821C8
:104E0800C3F898103C49C3F89C1001F57F2101F6BE
:104E1800DF71C3F8A0100921C3F898103749C3F807
:104E28009C103749C3F8A010BFF35F8FC3F89420D4
:104E38005A6A42F480325A62BFF34F8FBFF36F8FC2
:104E48005A6912F4803224D1C3F88420BFF34F8FFB
:104E580043F6E074D3F880301A49C3F3C900C3F3AA
:104E68004E335B01024603EA040646EA8275013ABC
:104E7800C1F86052F9D2203B13F1200FF2D1BFF3F1
:104E88004F8F4B6943F480334B61BFF34F8FBFF3B0
:104E98006F8F0C4B5A6912F4003211D1BFF34F8F48
:104EA800BFF36F8FC3F85022BFF34F8FBFF36F8FDD
:104EB8005A6942F400325A61BFF34F8FBFF36F8FC4
:104EC80070BD00BF00ED00E002000020E3FF02001B
:104ED80006000010E1FFFF1FE3FF2720030000404A
:104EE800E5FFFF5F02000060E9FFFF6102C03F20AD
:104EF800E3FF4F2002C0BF200200802006000062AE
:104F0800E3FFFF6F70B5204B5A6912F4003211D1DC
:104F1800BFF34F8FBFF36F8FC3F85022BFF34F8F8C
:104F2800BFF36F8F5A6942F400325A61BFF34F8F53
:104F3800BFF36F8F144A536913F4803323D1C2F837
:104F48008430BFF34F8F43F6E074D2F88030C3F358
:104F5800C900C3F34E335B01014603EA040646EA7F
:104F680081750139C2F86052F9D2203B13F1200F44
:104F7800F2D1BFF34F8F536943F480335361BFF3CA
:104F88004F8FBFF36F8F70BD00ED00E070470000DA
:104F980008B5104A104B9A60D3F8882042F03F02B7
:104FA800C3F88820D3F8882042F47002C3F8882018
:104FB800FFF763FEFFF762FE084B1B68DB0701D4AF
:104FC800FFF75AFEFFF79EFFFFF7E0FF044B054A85
:104FD8001A6008BD0000001000ED00E000B00050AD
:104FE800C457002040787D0130B502460024104B9C
:104FF8001D781846954202D19D888D4217D00134FC
:10500800092C03F10603F3D10A4B5B68DBB2062BCC
:105018000CD90624084B1D781846954202D19D8864
:105028008D4204D0013C03F10603F4D1002030BDC9
:10503800F227011000B00050CE27011038B5044601
:10504800084619461546FFF7CFFF38B143888288CE
:105058002946E0180AF03AFC002038BD0120FCE798
:1050680038B50546084619881446FFF7BDFF38B11C
:1050780041888288294420460AF028FC002038BD4F
:105088000120FCE7034B5B68DBB2062B8CBFCC200E
:105098004020704700B0005008B5F82209490A4876
:1050A8000AF014FCFFF714F84FF4005200210748E7
:1050B80011F036FA4FF4FD52054904480AF006FC8F
:1050C80008BD00BFC8470110007F40200060402095
:1050D8002828011010B50E4A86B00E4C03AB07CA3B
:1050E80083E8070004F10C0384E80700184642F639
:1050F800F4720021019311F013FA40F21C52064990
:1051080001980AF0E3FB06B0BDE81040FEF7E0BFE7
:105118004C4E011000504020C0480110044B054A75
:105128005B680548DBB2062B88BF1046704700BF96
:1051380000B00050DC4D0110007F40200023F0B586
:1051480000F18044490804F50224971C37F82360CD
:1051580032F82350013305EB064544F8045BDDB211
:10516800A942F3D80139C9B2043000EB810080B2FA
:10517800F0BD2DE9F0414FF0000E9DF81C809C46D3
:10518800DDE908633244002531F815400788A74255
:105198008BBF3F1BE41BBCB2A4B20DB1744506D251
:1051A800A6461CF805703770069F7F5D1F70013595
:1051B800ECB24445E8D30136964203F1010300F10D
:1051C8000200E0D1BDE8F08110B50E4C042011F0CA
:1051D800EBF963690A2023F004036361636923F030
:1051E80002036361636943F002036361636943F027
:1051F8000403636111F0D8F96369DB07FCD5A06982
:10520800000C10BD0028084010B5354B354C1A6805
:10521800002042F010021A605A68462142F080626B
:105228005A60D3F8FC206FF30902C3F8FC20A26D82
:1052380022F48072A265226E42F480622266E268DD
:1052480022F40042E260D3F8EC2022F02002C3F8F6
:10525800EC20D3F8EC2042F02002C3F8EC2043F60F
:10526800FC72636F13436367A36F1343A367636F92
:105278001D4A23F080436367C4F88C00FFF75EFF84
:10528800D4F88C30043003EB0043C4F88C3036215A
:10529800164AFFF753FF04303021154AC4F890002E
:1052A800FFF74CFFD4F89030043003EB0043C4F808
:1052B80090304E210F4AFFF741FF043060210E4A1B
:1052C800C4F89400FFF73AFFD4F89430043003EBA5
:1052D80000435E21094AC4F89430FFF72FFF10BD40
:1052E8000040084000280840885101101C51011056
:1052F800BC50011020500110604F0110A44E011045
:105308002DE9F04F2DED028BBFB00590782009F004
:105318003DFF0490782009F039FF81464FF4F07082
:1053280009F034FF08904FF49E7009F02FFF0690A3
:10533800A02009F02BFF0B90A02009F027FF0C906C
:105348004FF49E7009F022FF09904FF49E7009F007
:105358001DFF0790A02009F019FF0D90A02009F06B
:1053680015FF0E904FF49E7009F010FFB14C0A9093
:10537800636F002623F003036367A36F4FF0FF3BBF
:1053880023F00303A367E368B24643F0006343F0E6
:105398000303E36023694FF0010843F4E02323612A
:1053A8006368802523F0FF036360636843F031037B
:1053B8006360236843F4805343F001032360636808
:1053C80043F4002343F480736360236A43F4804307
:1053D8002362994BD3F8182122F07C62C3F8182174
:1053E800D3F8182142F0E072C3F81821A26822F419
:1053F800FE42A260A26842F48042A260626922F082
:1054080030026261626942F4815242F008026261CC
:10541800626842F400226260A2696FF30F02A2611F
:10542800A26942F4F052A261D3F81C216FF30A0278
:10543800C3F81C21D3F81C2142F01002C3F81C2128
:10544800A26822F0FF02A260A26842F08002A26075
:10545800D3F8182122F07E62C3F81821D3F8182156
:1054680042F0E072C3F81821236843F00103236077
:10547800636943F080036361636923F080036361B8
:10548800636923F002036361636943F002036361A4
:10549800E36843F04403E360E36943F40023E36112
:1054A800A36823F4FE43A360A36843F48043A36086
:1054B800CDE9116B10960F96A368042023F4FE43E0
:1054C800A360A368402743F48043A36011F06CF8FD
:1054D8000121636843F4807363606068400118D5F4
:1054E8006068820100F19380402343FA01F03B1A7F
:1054F800DFB21591A06820F4FE40A060A06840EAE1
:105508000720A060012011F04FF8159901310729F3
:10551800E3D1616821F480716160FFF755FE802155
:1055280048F2484C41FA08F16045C9B278D9A0F56B
:10553800044B2944CDE91075ABF1480BCDB20F905F
:10554800636908F1010823F004036361A368B8F1F3
:10555800090F23F0FF03A360A36843EA0503A360D0
:10556800AAD1129B5B4528BFDDE9106A89F800A023
:105578004FF0010A049B28BFBDF83C701E7038BF6D
:10558800BDF85070089B1F80A36823F0FF03A36039
:10559800A3681D43A560636923F00403636199F858
:1055A80000300F93049B1D7800260F9BB34653FAD7
:1055B8008AF8A3685FFA88F823F0FF03A360A3685A
:1055C8005FFA8AF748EA0303A360636843F48073C9
:1055D8006360236A43F48043236233461093A268CE
:1055E800042022F4FE42A260A26842EA0522A260D8
:1055F80010F0DAFF6268500134D56268109B12F02F
:10560800007245D1D5B1013D0026EDB218E06068C1
:1056180083017FF56EAF402343FA01F03B1867E73B
:10562800ACEB0003691AAA463E461293CDB2149019
:1056380086E700BF00280840004008400136F6B25F
:1056480043B1139B9A420EBF4FF0000B0BF1010BB5
:105658005FFA8BFBBBF1040F4FF00103139201D0EB
:10566800022EBBD1636823F480736360A36823F4BC
:10567800FE43A360A36843EA0523A360FFF7A4FDE4
:1056880047F21063984216D9BAF1780F08D1FEE7AD
:105698003E2D01D80135B7E701363F25F6B2CFE7F1
:1056A800049B09F80A8003F80A50089B23F81A009B
:1056B8000AF1010A78E76368282223F4002363606B
:1056C8000E9B089903930C9BB248CDE90173CDF862
:1056D8000090049BFFF74DFD0D9B282203930B9B25
:1056E800AD48CDE90173CDF80090049BFFF741FD6B
:1056F8000A9B4F220393099BA848CDE90173CDF873
:105708000090049BFFF735FD079B4F220393069BF0
:10571800A348CDE90173CDF80090049BFFF729FD5C
:105728006368A04D43F400236360A36916AF6FF369
:105738000F03A361A369B7EE008A43F48743A3610B
:10574800D5F81C316FF30A03C5F81C31D5F81C31A4
:1057580043F01003C5F81C31069BDA7C079BDB7C01
:1057680043EA0223A360D5F8183123F07E63C5F815
:105778001831D5F81831C5F81831FFF725FD6369D8
:10578800064623F004036361D5F8183123F07C63DF
:10579800C5F81831D5F8183143F07C63C5F81831CD
:1057A800FFF712FD6369801B23F0040363616368DC
:1057B8003A4623F4002363604FF4D823B3FBF0F395
:1057C80007EE903A0025F8EEE76A9FED776A74498C
:1057D80031F8023BB0EE487AA3F5F443493B03EBBA
:1057E800430307EE903AF8EEE77AA7EEC67A66EE3C
:1057F800877AFCEEE77A17EE903A0135EDB2282D5C
:1058080022F8023BE4D16368664E43F400236360E8
:10581800A3696FF30F03A361A36943F48743A361EB
:10582800D6F81C316FF30A03C6F81C31D6F81C31C0
:1058380043F01003C6F81C31069B93F83B20079BE6
:1058480093F83B3043EA0223A360D6F8183123F0DB
:105858007E63C6F81831D6F81831C6F81831FFF744
:10586800B3FC6369804623F004036361D6F81831FA
:1058780023F07C63C6F81831D6F8183143F07C63FE
:10588800C6F81831FFF7A0FC6369A0EB080023F005
:10589800040363614FF4D823B3FBF0F307EE903AA7
:1058A8009FED426AF8EEE76A3D4916AA31F81530CD
:1058B800B0EE487AA3F50043893B03EB430307EEB8
:1058C800903AF8EEE77AA7EEC67A66EE877AFCEEAB
:1058D800E77A17EE903A22F8153001354F2DE5D1C9
:1058E800E36923F40023E3610023C4F89830059AA0
:1058F800C4F89820059A02F1804101F502210B9A1B
:105908000D98D25CC05C00EB02200E9AD25C02EBD0
:1059180000420C98C05C013302EB0022282B41F8AE
:10592800042BECD1059AD4F89830A03203EB02434B
:10593800C4F89830059B1E49099A19440023551C40
:105948000A9A501C15F8132010F8136006EB02266B
:105958000A9A12F8132002EB0642099E16F8136001
:10596800013302EB0622282B41F8042BEAD100224E
:10597800059BC4F89C2003F5A073C4F89C30069BD3
:105988000C4A591E079B581E059B1A44069B03F197
:105998004E0511E03E540110EE530110B2520110B1
:1059A80014520110004008407F512D370B802A37D0
:1059B800A02008404021084037F8023B11F8016F49
:1059C8001B0403EB062310F8016F8D42334442F8A1
:1059D800043BF1D1059B142003F51F75636B23F479
:1059E800F0136363636B43F4E0136363236943F465
:1059F80080732361A36B43F47E33A363636B43F427
:105A080083036363D4F8883043F44073C4F8883060
:105A180010F0CAFD636B022023F40073636310F077
:105A2800C3FD636B022043F40073636310F0BCFD95
:105A3800D4F8883023F00103C4F88830D4F88830CB
:105A480043F00103C4F88830D4F888309907FBD5AF
:105A5800636B23F4F8436363D4F88820D4F8883060
:105A6800C2F3C302C3F38003616B9B0343EA82233F
:105A78000B436363D4F8883023F00103C4F88830FB
:105A8800636B23F481036363D4F8883023F40073D1
:105A9800C4F88830236923F480732361E36823F012
:105AA800006323F04303E360636F43F0030363671A
:105AB800A36F43F00303A367236A23F4804323629D
:105AC800636823F4002363608B4BD3F81C2142F0F6
