:020000041000EA
:10000000002000208D2F011061670010615F00202B
:10001000A35F0020D72F0110D72F0110D72F011079
:10002000000000000000000000000000D72F0110B9
:10003000D72F011000000000855E002029CD01109F
:10004000D72F0110D72F01108130011093300110EC
:10005000A5300110B7300110C9300110DB3001109C
:10006000ED300110FF300110D72F0110152F0110B6
:10007000D72F0110D72F0110D72F0110D72F011024
:10008000D72F0110D72F0110D72F0110D72F011014
:10009000613D0110D72F0110D72F0110D72F01106C
:1000A000D72F0110D72F0110D72F0110D72F0110F4
:1000B000D72F0110D72F0110D72F0110D72F0110E4
:1000C000D72F0110D72F0110D72F0110D72F0110D4
:1000D000D72F0110D72F0110D72F0110D72F0110C4
:1000E000D72F0110D72F0110D72F0110D72F0110B4
:1000F000D72F0110D72F011065490110D72F0110FC
:10010000D72F0110B1600110F12F01100330011041
:100110001530011027300110393001104B3001101B
:100120005D3001106F300110D72F011041440110D4
:10013000D72F01108D5A0110F1C20110ED8A011064
:10014000D72F0110D72F0110D72F0110ADCC0110E0
:10015000D72F0110D72F0110D72F0110D72F011043
:100160004D490110D72F0110D72F0110D72F0110A3
:10017000935A011029680110995A0110D72F0110C4
:10018000D72F0110D72F0110D72F0110D72F011013
:10019000ED3E0110D72F0110D72F0110D72F0110DE
:1001A000D72F011009C30110D72F0110D72F01102D
:1001B00015CC0110D72F0110D72F0110D72F011008
:1001C000D72F0110D72F0110D72F011000000000EA
:1001D000000000000000000000000000000000001F
:1001E000000000000000000000000000000000000F
:1001F00000000000000000000000000000000000FF
:0402000000000000FA
:10020400014B43F82010704730B00C50014B53F8A9
:100214002000704730B00C50024A936E60F31D53B7
:100224009366704700A00C5038B560B1114C6368F8
:10023400DBB2072B1AD06368DBB20F2B16D0082869
:1002440001D0102814D100294FF021040CBF202123
:100254000121094D8440EB6D814023EA04030B43E3
:10026400EB651AB141F2883004F014FF002038BD68
:100274000120FCE700B0005000A00C5038B5EFF3AB
:100284001083012585F31088022004F021FE2846FE
:1002940003F00CFE2A4600210820FFF7C5FF4FF4A7
:1002A400FA5004F019FF002003F082FB044628B939
:1002B40004F07EFE2946204603F050FC104B114CFE
:1002C40000206367FFF7A2FF014620F07F4020F083
:1002D4000F0028B941F4A04141F05001FFF790FF0D
:1002E40023685B0706D52368074823F004032360CB
:1002F40004F0D0FE034A136843F004031360FEE7DE
:1003040015C0500A00A00C50A0860100044B1A78B6
:1003140022B118B1DB7803700020704701207047C8
:10032400418C0020044B1A7822B118B15B7B037016
:100334000020704701207047418C002003280ED80C
:10034400084A52F8203029B143F0060342F820301D
:100354000020704723F0060343F00403F6E701206E
:10036400704700BF5CB00C5003289DBF034B53F88B
:100374002000C0F340204FF0FF3070475CB00C50B9
:1003840003280CD8074B53F82020920707D553F8BD
:10039400202061F3000243F8202000207047012050
:1003A400704700BF5CB00C5059B1032809D8064B04
:1003B40053F82030002013F0020318BF01230B7000
:1003C40070470120704700BF5CB00C5003F0C6BFFB
:1003D40002F08EBF08B502F05DFF0A4B1B787BB1BB
:1003E40000280DDB084B03EB401005F0C5FE38B1C7
:1003F400BDE808404FF4EA720449054805F0A8BE78
:1004040008BD00BFECB30020E4CB0020AE2E0020DA
:100414003573002008B502F06BFF18B1BDE8084041
:1004240002F0CEB808BD0000034B1B7843FA00F07D
:1004340000F00100704700BFE0CB0020F7B5154D78
:100444002C781CBB144B6F469A8818689B79ADF8BE
:1004540004208DF80630009002F08EFF01220F4B2D
:100464000F4E28701A70E2B21046FFF7DDFF40B15C
:1004740031328DF80520002301223946304605F03B
:1004840057FE0134052C06F12006ECD1287803B080
:10049400F0BD00BFE0CB002041730020ECB300208E
:1004A400E4CB002008B5FFF7C9FF002008BD727433
:1004B4005F666C6173685F756E6C6F636B000000E0
:1004C400F0B505460138C0B2FD2808D800240B4F0A
:1004D40057F8040B067826B90134062CF8D100200D
:1004E4000BE0AE4205D14678964202D186788E4220
:1004F40001D00830EEE703B11C70F0BD502F00208E
:1005040007B50DF10703FFF7DBFF064B40B14FF4CE
:1005140005719DF8072001FB023003B05DF804FB70
:100524001846FAE78831002008B50023FFF7C8FF12
:1005340008B1406808BD4FF40020FBE708B500236C
:10054400FFF7BEFF10B1C07800F0010008BD000045
:10055400C830002018300020E02F0020C02F0020D9
:10056400902F0020682F0020C225390000000002CF
:10057400C225370000008000C220190100000002DB
:1005840025701800000000010000000000000000B9
:100594002041190000000002204019000000000260
:1005A4002043190000000002852019010000000208
:1005B40085201A0100000004000000000000000073
:1005C400C8601900000000020B401900000000027E
:1005D400C8401900000000020000000000000000F4
:1005E400EF60190000000002EF7019010000000222
:1005F400E542190000000002EF401900000000026B
:1006040068491900000000025E4019000000000261
:10061400000000000000000085601601000040009A
:10062400856017010000800085601801000000014A
:1006340085651801000000018563180100000001B0
:1006440085201701000080008520180100000001AA
:100654002570160000004000EF6018000000000143
:10066400EF401800000000010B60180000000001BA
:100674005E50180000000001A128180000000001CD
:10068400C843180100000001C84018000000000120
:10069400C8401700000080002040170100008000BF
:1006A400CD60180000000001B34017010000800075
:1006B400B340160100004000B360140000001000B5
:1006C400000000000000000085601501000020000B
:1006D400856014010000100085601300000008000C
:1006E400C860140000001000C8601500000020005D
:1006F400C860160000004000C860170000008000B9
:10070400C8601800000000010B40170000008000C2
:10071400F8421800000000015E701700000080001D
:100724005E40180000000001EF6016000000400069
:1007340020401801000000012041180000000001C1
:100744002050180000000001EB60130000001000AE
:10075400EB601400000010001C40180000000001B1
:100764006840170000008000684018000000000185
:100774000B40180000000001B34018010000000104
:100784000000000000000000008560150000030068
:10079400000000010010000006000000000000003E
:1007A4000104000000000000000105000100000039
:1007B4000000010101010000000000010000000030
:1007C40000000000000300010000000201010B0012
:1007D400010800000201013B0002080000020101BF
:1007E4006B0003080000020101BB000200000202CA
:1007F4000201EB00030400030203019F0001000057
:1008040000000001000000000000000000000000E3
:1008140000000000000000000000000000000000D4
:1008240000000000000000000000000000000000C4
:10083400000000000000000000009900000000001B
:100844000000016600000000000000013500010006
:10085400000000000150000000000000000102013F
:100864000100000002010132010300000002010145
:100874000000000000000000000000000000000074
:1008840000008100000000000201012000000000BF
:1008940000020101520000000000020101D8000022
:1008A40000000002010160000000000000000100DF
:1008B4000000000000000000000000000000000034
:1008C4000000000000000000000000000000000024
:1008D4000000000000000000000000000000000014
:1008E4000000000000000000000000000000000004
:1008F40000000000000000000000000000000000F4
:1009040000000000000000000000000000000000E3
:1009140000000000000000000000000000000000D3
:1009240000000000000000000000000000000000C3
:1009340000000000000000000000000000000000B3
:1009440000000000000000000000000000000000A3
:10095400004B0001080000020101480001080000EA
:1009640002010142010100000002010144000000F3
:100974000000020101B90000000000000001AB000A
:1009840000000000000001ED000707000702070156
:100994005A000108000002010100000000856016F1
:1009A4000000030000000001001000000600000029
:1009B4000000000001040000000000000001050028
:1009C400010000000000010101010000000000011D
:1009D400000000000000000000030001000000020D
:1009E40001010B00010800000201013B00020800A4
:1009F400000201016B0003080000020101BB0002B8
:100A0400000002020201EB00030400030203019F41
:100A140000010000000000010000000000000000D0
:100A240000000000000000000000000000000000C2
:100A340000000000000000000000000000000000B2
:100A44000000000000000000000000000000990009
:100A5400000000000000016600000000000000012A
:100A640035000100000000000150000000000000FB
:100A74000001020101000000020101320103000033
:100A8400000201010000000000000000000000005E
:100A940000000000000081000000000002010120AD
:100AA40000000000000201015200000000000201E9
:100AB40001D80000000000020101600000000000F5
:100AC4000000010000000000000000000000000021
:100AD4000000000000000000000000000000000012
:100AE4000000000000000000000000000000000002
:100AF40000000000000000000000000000000000F2
:100B040000000000000000000000000000000000E1
:100B140000000000000000000000000000000000D1
:100B24000000000000000000000000000000003190
:100B340001010000000000010000000000000000AE
:100B440000000000000000000000000000000000A1
:100B54000000000000000000000000000000000091
:100B640000000000004B00010800000201014800E1
:100B7400010800000201014201010000000201011C
:100B8400440000000000020101B900000000000060
:100B94000001AB0000000000000001ED00070700A9
:100BA400070207015A0001080000020101000000C9
:100BB40000EF6019000003000000000100100000B5
:100BC4000600000000000000010400000000000016
:100BD4000001050001000000000001010101000006
:100BE40000000001000000000000000000030001FC
:100BF4000000000201010B00010800000201013B9A
:100C040000020800000201016B0003080000020159
:100C140001BB0002000002020201EB000304000316
:100C24000203019F00010000000000010000000019
:100C340000000000000000000000000000000000B0
:100C440000000000000000000000000000000000A0
:100C54000000000000000000000000000000000090
:100C64000000990000000000000001660000000080
:100C740000000001350001000000000001500000E8
:100C84000000000000010201010000000201013225
:100C94000103000000020101C8000100000000007F
:100CA40001C50101000000000001810000000000F6
:100CB40002010120000000000002010152000000B6
:100CC4000000020101D800000000000201016000E0
:100CD40000000000000001150001000000000001F8
:100CE400110101000000000001B700000000000035
:100CF4000001E900000000000000011300010000F1
:100D0400000301010C00010800000301016C000351
:100D1400080000030101EC000304000303030112B3
:100D2400010100000003010134010300000003017C
:100D340001210000000000030101DC0000000000AC
:100D4400030101000000000000000000000000009A
:100D5400000000000000000000000000000000008F
:100D6400000000000000000000000000000000007F
:100D74000000000000000000004B00010800000318
:100D840001014800010800000301014201010000C3
:100D940000030101440000000000030101B9000048
:100DA400000000000001AB0000000000000001EDA5
:100DB40000070700070307015A00010800000201A9
:100DC4000100000000C860190000030000000001D9
:100DD40000100000060000000000000001040000F4
:100DE40000000000000105000100000000000101F6
:100DF40001010000000000010000000000000000EC
:100E0400000300010000000201010B0001080000C2
:100E14000201013B00020800000201016B0003080B
:100E24000000020101BB0002000002020201EB000B
:100E3400030400030203019F0001000000000001FD
:100E4400000000000000000000000000000000009E
:100E5400000000000000000000000000000000008E
:100E6400000000000000000000000000000000007E
:100E7400000000000000990000000000000001666E
:100E84000000000000000001350001000000000027
:100E940001500000000000000001020101000000F8
:100EA400020101320103000000020101C800010037
:100EB4000000000001C501010000000000018100E4
:100EC40000000000020101200000000000020101F6
:100ED400520000000000020101D8000000000002DE
:100EE4000101600000000000000001150001000085
:100EF40000000001110101000000000001B7000022
:100F0400000000000001E9000000000000000103EF
:100F140000010000000301010B00010800000301AF
:100F2400016B0003080000030101EB00030400034C
:100F34000303010201010000000301013201030067
:100F44000000030101200000000000030101D8009B
:100F54000000000003010100000000000000000088
:100F6400000000000000000000000000000000007D
:100F7400000000000000000000000000000000006D
:100F8400000000000000000000000000004B000111
:100F940008000003010148000108000003010142A8
:100FA40001010000000301014400000000000301EE
:100FB40001B90000000000000001AB0000000000C7
:100FC4000000010000000000000000005A000108B9
:100FD400000002010100000000204119000003008C
:100FE40000000001001000000600000000000000E6
:100FF40001040000000000000001050001000000E1
:1010040000000101010100000000000100000000D7
:1010140000000000000300010000000201010B00B9
:10102400010800000201013B000208000002010166
:101034006B0003080000020101BB00020000020271
:101044000201EB00030400030203019F00010000FE
:10105400000000010000000000000000000000008B
:10106400000000000000000000000000000000007C
:10107400000000000000000000000000000000006C
:1010840000000000000000000000990000000000C3
:1010940000000166000000000000000135000100AE
:1010A40000000000015000000000000000010201E7
:1010B40001000000020101320103000000020101ED
:1010C400C80001000000000001C50101000000008B
:1010D4000001810000000000020101200000000066
:1010E40000020101520000000000020101D80000CA
:1010F4000000000201016000000000000000011572
:1011040000010000000000011101010000000000C6
:1011140001B70000000000000001E9000000000029
:101124000000011300010000000301010C0001088C
:1011340000000301016C0003080000030101EC003E
:101144000304000303030112010100000003010171
:10115400340103000000030101210000000000032A
:101164000101DC0000000000030101310101000065
:10117400000000010000000000000000000000006A
:10118400000000000000000000000000000000005B
:10119400000000000000000000000000000000004B
:1011A400004B000108000003010148000108000091
:1011B4000301014201010000000301014400000099
:1011C4000000030101B90000000000000001AB00B1
:1011D400000000000000010000000000000000000A
:1011E4005A000108000002010100000000C2253974
:1011F4000000003C60000000001000000600000039
:1012040000000000010400000000000000010500CF
:1012140001000000000001010101000000000001C4
:1012240000000000000000000003000100000002B4
:1012340001010B00010800000201013B000208004B
:10124400000201016B0003080000020101BB00025F
:10125400000002020201EB00030400030203019FE9
:101264000001000000000001000000000000000078
:10127400000000000000000000000000000000006A
:10128400000000000000000000000000000000005A
:1012940000000000000000000000000000009900B1
:1012A40000000000000001660000000000000001D2
:1012B400000000000000000000000000000000002A
:1012C40000000201010000000201013201030000DC
:1012D40000020101C80001000000000001C5010175
:1012E4000000000000018100000000000201012054
:1012F4000000000000020101520000000000020191
:1013040001D800000000000201016000000000009C
:10131400000001150001000000000001110101009E
:101324000000000001B70000000000000001E90017
:10133400000000000000010300010000000301019F
:101344000B00010800000301016B00030800000307
:101354000101EB0003040003030301020101000087
:101364000003010132010300000003010120000019
:10137400000000030101D800000000000301010087
:101384000000000000000000000000000000000059
:101394000000000000000000000000000000000049
:1013A4000000000000000000000000000000000039
:1013B40000000000004B00010800000201010000D1
:1013C4000000000000000000000000000000000019
:1013D400000000000000000000B900000000000050
:1013E4000001AB000000000000000100000000004C
:1013F400000000005A000108000002010100000082
:1014040010B5E0B1D9B100230122436080F8222055
:101414000C6804604A6880F820208A680261CA68FF
:1014240012054261FF22C4F884204FF05024016861
:101434008C6701680A62016818464A6410BD01207D
:10144400FCE738B102680020136C23F0FF03194352
:10145400116470470120704770B5C8B105689DF9E3
:1014640018609DF91C00AC6C40EAC60040EAC32336
:101474009DF910006FF3140443EA00239DF914004E
:1014840043EA801343EA423242EA81412143A96498
:1014940070BD40B102680020136C23F47F4343EA1B
:1014A4000121116470470120704770B5C8B1056807
:1014B4009DF918609DF91C002C6D40EAC60040EAB5
:1014C400C3239DF910006FF3140443EA00239DF92C
:1014D400140043EA801343EA423242EA8141214341
:1014E400296570BD18B10368002059607047012058
:1014F400704730B103680139C1F313010020596208
:1015040070470120704708B103681962704718B129
:101514000368186900F00100704720B1026853693C
:1015240043F001035361704738B50D460446A8B132
:101534000368DA61C36A0BB10120984723689D618F
:101544002046FFF7E4FF0028FAD02046FFF7E5FF26
:10155400E36A0BB100209847002038BD0120FCE766
:1015640028B103685868C04300F0010070470120A7
:10157400704708B103685868704720B10268536D1A
:1015840061F38E235365704708B10368D9607047CF
:1015940010B10368D868C0B2704770B5E8B1056887
:1015A4009DF91C609DF92000AC6A40EAC6009DF9D3
:1015B40010606FF3150440EAC6209DF9146040EAF8
:1015C40006209DF9186040EA861040EA433343EA56
:1015D400824242EA41512143A96270BD50B103687D
:1015E4001A6821B142F0010200201A60704722F00B
:1015F4000102F9E70120704750B103681A6821B16C
:1016040042F4001200201A60704722F40012F9E735
:101614000120704750B103689A6821B142F010026A
:1016240000209A60704722F01002F9E70120704709
:1016340030B580B10568BDF80C00AC68800640EA9E
:101644008353002043EA81416FF39E1441EA8212DE
:101654002243AA6030BD0120FCE730B102680020BB
:10166400936861F30203936070470120704750B19F
:1016740003689A6821B142F0200200209A60704702
:1016840022F02002F9E70120704750B103681A687C
:1016940021B142F0807200201A60704722F08072FB
:1016A400F9E70120704750B103681A6821B142F488
:1016B400000200201A60704722F40002F9E70120BA
:1016C400704750B103689A6821B142F0004200208B
:1016D4009A60704722F00042F9E70120704750B148
:1016E40003689A6821B142F0080200209A607047AA
:1016F40022F00802F9E70120704740B10268002097
:10170400936D23F47F0343EA0141916570470120FF
:10171400704760B100685206836D42EA012123F0EC
:10172400007323F47F43194381650020704701202F
:101734007047000010B5F0B10468A06DB1B1022A81
:1017440084BF023AD2B213026FF30F0003F4FE43D4
:101754000343120654BF43F0806343F0A06343F095
:101764000A0323F000730020A36510BD034B03405C
:1017740043F00073F7E70120F7E700BF0000FFFA2A
:1017840030B10268936C23F4783343EA41319164B5
:10179400704730B10268136D23F4783343EA413162
:1017A4001165704748B10368D3F8882009B141F442
:1017B40080310020C3F888107047012070477FB53E
:1017C400054600283DD0C46801B394F86A30002B64
:1017D40037D094F9726094F96E3094F96C1094F9DE
:1017E4006D20039694F97160029694F970600196E5
:1017F40094F96F400094FFF72FFEEB6893F86A109A
:101804002846FFF71EFE002004B070BD94F8463051
:10181400BBB194F94E6094F94A3094F9481094F9A4
:101824004920039694F94D60029694F94C60019610
:1018340094F94B400094FFF70FFEEB6893F84610C1
:10184400DEE70120E0E77FB50546002836D0C4680E
:10185400E1B194F96E6194F96A3194F9681194F9DB
:101864006921039694F96D61029694F96C6101966D
:1018740094F96B410094FFF7EFFDEB6893F8661160
:101884002846FFF7DEFD002004B070BD94F95C61CA
:1018940094F9583194F9561194F95721039694F90F
:1018A4005B61029694F95A61019694F95941009446
:1018B400FFF7D2FDEB6893F85411E1E70120E3E769
:1018C400F0B5C4680646174687B054B3382928D8FB
:1018D40001EBC1052C44237C1BB394F918C094F983
:1018E400133094F9122094F91110CDF810C094F922
:1018F40017C0CDF80CC094F916C0CDF808C094F9FF
:1019040015C0CDF804C094F914400094FFF745FEC7
:10191400F3683A462B443046197CFFF705FE07B0BE
:10192400F0BD0120FBE7000070B50446002841D05B
:10193400C368002B3ED000293CD093F89351012179
:10194400CDB3FFF7D6FD002214212046FFF7B8FFE0
:101954002046FFF70EFEC30704D540F23E413D4842
:1019640004F0F2FB002215212046FFF7A9FF0546EB
:1019740020B1002220461146FFF7A2FF0221204693
:10198400FFF7B0FD01212046FFF7B3FD00222B2114
:101994002046FFF795FF6DB101212046FFF7A9FD11
:1019A400002202212046FFF78BFF2046FFF7D8FDD7
:1019B4000028F5D070BDFFF79CFD2A460221204681
:1019C400FFF77EFF2046FFF7D4FD2A461421204668
:1019D400FFF776FF10B92046FFF7CBFDE3681B7ACB
:1019E400ABB3012103F00F051B0901FA03F3DBB2CA
:1019F4000DB11D46002300221521204643EA05258A
:101A0400FFF75EFF064620B1002220461146FFF78D
:101A140057FF29462046FFF765FD02212046FFF7C0
:101A240068FD002203212046FFF74AFF002EC1D0A3
:101A340001212046FFF75DFD002202212046FFF729
:101A44003FFF2046FFF78CFD0028F5D0B2E70225C2
:101A5400D1E700BFB972002038B504460D46FFF740
:101A640063FF29462046BDE83840FFF7A8BE38B5D5
:101A740004460D46FFF758FF29462046BDE8384086
:101A8400FFF7E1BE10B5044640B10268936A6FF3F4
:101A9400150343F4802343F001039362032120469A
:101AA400FFF727FD00229F212046FFF73DFD20463A
:101AB400FFF75FFD20F07F4010BD70B5044600289D
:101AC4003ED0C368012193F89351002D3BD0FFF71A
:101AD40010FD002202212046FFF7F2FE88BB2046BB
:101AE400FFF747FDC0B2E368DD790DB120EA0505D3
:101AF400002215212046FFF7E3FE064620B100220E
:101B040020461146FFF7DCFE29462046FFF7EAFC93
:101B140001212046FFF7EDFC002203212046FFF7B8
:101B2400CFFE6EB101212046FFF7E3FC0022022123
:101B34002046FFF7C5FE2046FFF712FD0028F5D02A
:101B440070BD0020CFE7FFF7D4FC2A4602212046CF
:101B5400FFF7B6FE00283ED12046FFF70AFDC6B2C5
:101B6400002214212046FFF7ABFE18B92046FFF7E8
:101B740000FDC5B2E368D97909B126EA0101002262
:101B8400204641EA05251521FFF79AFE064620B1B5
:101B9400002220461146FFF793FE29462046FFF710
:101BA400A1FC02212046FFF7A4FC002203212046C9
:101BB400FFF786FE002EC3D001212046FFF799FCD3
:101BC400002202212046FFF77BFE2046FFF7C8FCD7
:101BD4000028F5D0B4E72E46C2E760B1006850B1E2
:101BE400836D090623F0807301F0807123F0FF03F5
:101BF400114319438165704738B50446D0B1036871
:101C0400AB211D6815F0010502BF1A6842F00102FC
:101C14001A600268936A6FF3150343F00103936239
:101C24000022FFF781FC25B92268136823F0010321
:101C3400136038BD0120FCE7002070472DE9F04710
:101C4400884699460446002845D08368002B42D034
:101C5400B9F1000F3FD001680F6832B310229A60C7
:101C6400002382684E465361826893618268D36020
:101C7400802283681A6105680435A06804F088FA34
:101C840050BBA06804F06CFA30BB236847F020070F
:101C94001F60226809F1FF335362414633462A46E6
:101CA400A068BDE8F04704F077BA4FF400719A6079
:101CB400836809F1030659614FF40061836845465E
:101CC40099618368B608DA60802283681A610368C0
:101CD40003F10408D1E70120BDE8F08710B50A46F6
:101CE400044670B1806860B1E16A11B14FF0FF320F
:101CF400002104F065FA2268136823F020031360BE
:101D040010BD0120FCE710B50B46044686B020B395
:101D140008294FF000014FF0010283BF0B46CDE9C3
:101D24000212CDE90011CDE902118EBF1946CDE9A9
:101D340000115BB20492FFF730FC03212046FFF749
:101D4400D8FB00229F212046FFF7EEFB2046FFF739
:101D540010FC20F07F4006B010BDFF20FBE738B533
:101D64000D46044698B3C3688BB39A7992B39B7AB1
:101D740083B30121FFF7BDFBE36802219A79204672
:101D8400FFF79EFD2046FFF7F4FBE3689B7ADDB185
:101D940043EA00012046FFF7A5FB01212046FFF797
:101DA400A8FBE36803219A792046FFF789FDE368DD
:101DB40084F8255002219A792046FFF781FD2046B8
:101DC400FFF7D7FB002038BD20EA0301E2E74FF01C
:101DD400FF30F8E76FF00100F5E710B5044620B3D3
:101DE400C2681AB313791BB3D3790BB30121FFF77C
:101DF40080FBE36802211A792046FFF761FD204643
:101E0400FFF7B7FB94F824203F2A4FEA121304D8B3
:101E1400012B08D800F0300007E0043B012BF9D86F
:101E240000F0F00001E000F0700010BD1046FCE787
:101E34001846FAE70346081172B1072B0CD8DFE8FD
:101E440003F0040D182E353F474C28B101281368C0
:101E54000AD143F0010313600020704720F002030D
:101E6400012B03D0D0B11368034316E01368034376
:101E7400F1E70528F7D801A353F820F059480020CA
:101E84006D480020954800206D48002067480020D8
:101E94006D480020136843F0020313607047002864
:101EA400DAD0431E052B1368E1D9DDE7C30700F040
:101EB400030102D40029CFD0D5E713680B43CAE746
:101EC4000028C9D01368082843EA0003E5DCC2E708
:101ED4000028C1D0431E012BE5E70028BCD0431ED7
:101EE400022BE0E710B590F82530044683B1FFF7E4
:101EF40074FF014660B12246636843F4004342F82C
:101F0400043F94F82400BDE810400009FFF792BF95
:101F1400002010BD38B50D46044650B3C36843B322
:101F24009A794AB35B7A3BB30121FFF7E2FAE3689B
:101F340002219A792046FFF7C3FC2046FFF719FBDC
:101F4400E3685B7A95B143EA00012046FFF7CAFAD9
:101F540001212046FFF7CDFAE368032120469A7950
:101F6400FFF7AEFC002084F8265038BD20EA0301B8
:101F7400EBE74FF0FF30F8E76FF00100F5E738B515
:101F84000D46044648B3C3683BB39A790AB11B7A39
:101F94000BB9002038BD0121FFF7ABFAE368022139
:101FA4009A792046FFF78CFC2046FFF7E2FAE368B3
:101FB4001B7A7DB143EA00012046FFF793FA012121
:101FC4002046FFF796FAE368032120469A79FFF743
:101FD40077FCDEE720EA0301EEE74FF0FF30D9E7B4
:101FE40010B504460121FFF784FA02212046FFF7C9
:101FF40079FAE36803215A792046FFF761FC00214E
:102004002046FFF76FFAE368032120465A79FFF769
:1020140057FC002010BD40B190F8243013F0010F9C
:1020240014BF4FF480504FF4006070472DE9F04F17
:1020340085B00E4691461D4604460F9FB0B1C36855
:10204400A3B1C36993B1802F10D8FFF7E4FF00F167
:10205400FF3A0AEA010A0AEB05038342804607D9DC
:1020640002206060002005B0BDE8F08F0120F8E791
:102074000023636023694FF0000B8B4298BFCE1A94
:10208400B6FBF0F204212046FFF71AFC142003F0FB
:1020940023F801212046FFF72CFA052003F01CF851
:1020A400E268022112792046FFF70AFC2046FFF776
:1020B40060FAC107F1D4BBF1000F02D14FF0010B5C
:1020C400EBE72046FFF70EFF10B140F40040C8E7ED
:1020D40094F82020E368B2BB93F846102046FFF73B
:1020E400B0F9E06890F94EC090F94A3090F949206F
:1020F40090F94810CDF80CC090F94DC0CDF808C047
:1021040090F94CC0CDF804C090F94B0000902046E3
:10211400FFF7A2F9B203D4F810B004D594F827203D
:102124000AB14BF4805B49EA050242EA0A029307CA
:1021340002D16A1EFE2A21D82A4648460BEB0A0120
:1021440004F06EF81DE093F86A102046FFF779F961
:10215400E06890F972C090F96E3090F96D2090F9B2
:102164006C10CDF80CC090F971C0CDF808C090F98E
:1021740070C0CDF804C090F96F00C7E7B9F1000F43
:10218400DAD10E9B2BB13A4618460BEB080104F04A
:1021940047F8781967E72DE9F74F8B46DDE90C1707
:1021A40015461E46044630B1C36823B1D0F81C90CE
:1021B400B9F1000F05D101236360002003B0BDE82D
:1021C400F08F12B909B90223F6E72046FFF723FF7F
:1021D400B042824601D3802F01D90323ECE70023C8
:1021E400636023695B4598BFABEB030B01B137BB5D
:1021F40015F003080AD011BB4FF0000832462946F7
:10220400E06904F00DF8E5690AEB07061BF4003FEA
:1022140004D094F827300BB148F48058731E2B4433
:102224006B40B3F5801F009553D2012233462946F3
:102234002046FFF703FD024670B10423BCE73A468B
:1022440009EB0A0003F0ECFFE369002DD4D1D0467A
:102254003E4603EB0A05D9E701462046FFF730FB6B
:1022640094F82030424683BB0C212046FFF728FB1C
:102274004FF47A712046FFF731FD40BB002220461F
:102284001146FFF71DFBBBFBFAF210212046FFF7B6
:1022940017FB962002F0FEFE142002F0FBFE012143
:1022A4002046FFF726F9E36802211A792046FFF752
:1022B40007FB2046FFF75DF9C207EDD403074ABFC9
:1022C400606030464FF0FF3078E70D21CDE70523FD
:1022D40072E7002220461146FFF7F2FA00287FF445
:1022E4006CAF402EB146A8BF4FF0400929F0030758
:1022F400EB199D4234D149462046FFF7FAF894F889
:1023040020304246A3BB0C212046FFF7D9FA00280F
:102314007FF453AF009BA6EB09053B441F46002DF9
:10232400C144ABDD0022402DA846A8BF4FF04008B1
:1023340011462046FFF7C4FA28F003033B449F42AA
:1023440018D141462046FFF7D4F894F820304A4685
:10235400C3B90E212046FFF7B3FAA5EB0805DEE763
:10236400204655F8041B0193FFF7BCF8019BC0E716
:102374000D21C9E7204657F8041B0093FFF7B2F874
:10238400009BDCE70F21E5E770B50D46044608B174
:10239400C36823B901234FF0FF30636070BD00238D
:1023A4004360036900228B4298BFCD1AFFF733FEC6
:1023B400064611462046FFF783FAB5FBF6F21121D3
:1023C4002046FFF77DFA4FF4FA7002F063FE2820EE
:1023D40002F060FE01212046FFF78BF8E36802213A
:1023E4001A792046FFF76CFA2046FFF7C2F8C307B4
:1023F400EDD410F0040316BF606018466FF00100BE
:10240400CCE730B51D46044687B010B9012007B0AB
:1024140030BDC368002BF9D05B7A002BF6D003697A
:102424008B4298BFC91A002A6CD0FFF7F4FDB1FBA8
:10243400F0F20421204692B2FFF742FA012120462D
:10244400FFF757F8E36802211A792046FFF738FAB4
:102454002046FFF78EF810F00101EFD12046FFF778
:1024640059FD226829461368204643F480131360FB
:10247400FFF73FF894F82030E06813B390F8C031C8
:10248400002BC3D090F9C85190F9C33190F9C221FF
:1024940090F9C111049590F9C751039590F9C6516B
:1024A400029590F9C551019590F9C4010090204618
:1024B400FFF773F8E268236892F8C0219A6100205C
:1024C400A5E790F8B731002BA0D090F9BF5190F94F
:1024D400BA3190F9B92190F9B811049590F9BE5127
:1024E400039590F9BD51029590F9BC51019590F96D
:1024F400BB0100902046FFF750F8E268236892F889
:10250400B721DBE70268136823F480131360FFF735
:1025140004F801212046FFF7FDFCD0E708B5024688
:10252400FFF779FD28B192F824309B074CBFC00116
:10253400800108BD1FB5044610B9002004B010BDC9
:10254400C369002BF9D0FFF7E9FF0423019303AB20
:102554000093002341431A462046FFF767FD40B12C
:102564009DF80C30FF2BE8D00398002808BF012009
:10257400E4E70120E2E7000008B5E8B103680F4A88
:1025840093420CD002F58052934215D1062001F0FB
:102594000FFA022805D1BDE8084001F03EBA042034
:1025A400F5E7032803D1BDE8084001F039BA01205A
:1025B400BDE8084001F09CBA002008BD001004509A
:1025C40038B5054608B9002038BDFEF7E1FF0446DA
:1025D4000028F8D02846FFF7CFFFB0FBF4F0F3E76C
:1025E40038B190F8233013B10021FFF78CBBFFF70B
:1025F40049BAFF2070477FB504460A4651B3C568FF
:1026040095F8FF31002B3BD090F82030C3B395F9F7
:10261400076295F9022295F9033295F9011203969E
:1026240095F90662029695F90562019695F90452A8
:102634000095FEF711FFE368204693F8FF11FEF7BB
:1026440000FF0121204694F82520FFF773F80020AD
:1026540004B070BDFFF76EF8636994F82010B3F10D
:10266400807F06D919B92046FFF7EDF8EFE701217D
:10267400F9E719B92046FFF7A2F8E8E70121F9E7DD
:102684000120E5E710B50446F0B102681420D2F841
:10269400943043F00043C2F8943002F0FBFC23680A
:1026A400D3F89420D205FBD5D3F89400D3F8942022
:1026B400C0B222F00042C3F8942094F8253023F0ED
:1026C4007F03034384F8253010BD00002DE9F04357
:1026D4000E4690461F46044687B0002800F0E58069
:1026E400002900F0E280FEF78BFE2068FFF7A4FAD1
:1026F4003369002184F83430B3680546A363F36872
:1027040084F824101B05E363022384F8363033690C
:10271400C4F808805A1E5342534184F82330B8F158
:10272400000F58D0002F56D03B68C8F80030A3687B
:10273400FA685A601022A3689A608022A368D9605C
:10274400A3681A614FF48052A3685961A368996120
:10275400A368D961A3681A62A3685962C0B16FF013
:102764007F43984214D0012694F82330002B3DD1A6
:10277400002E5AD12046FFF73FFA304602F08AFC79
:10278400322002F087FC2046FFF72AFF05464CE082
:1027940001212046FEF7F1FEA74BA26920469A428A
:1027A4004FF000028CBF01211146FFF716FA2046B4
:1027B4009DF83810FEF7E8FE94F835302BB1012B64
:1027C40010D100212046FEF760FF01212046FEF7CC
:1027D40005FF0026C8E7002DDED06FF07F439D4241
:1027E400C1D1D9E7022BF0D10121EBE72268002700
:1027F4009368394643F07073936001233A46204648
:10280400CDE90373CDE901773B460097FEF7C5FE9A
:102814003A46FF212046FEF787FE384602F03AFC8E
:10282400C82002F037FC002EADD094F82330EFB26C
:10283400C5F307282563C5F30745424629463846AC
:10284400ABB303F0E1FCE060A0BB94F823302BB3FE
:1028540008212046FFF757FAC0F30728C0F30745BD
:10286400C7B2206342462946384603F0CDFCE060F7
:1028740000BB0F212046FFF746FAC0F30728C0F338
:102884000745C7B2206342462946384603F0BCFCDC
:10289400E06078B903F08CFCE06058B90021204670
:1028A400FEF79CFE0023C4E90E3301204CE0FDF743
:1028B40027FEC8E794F82330424629463846002BC1
:1028C40045D003F039FC424629468146384603F098
:1028D400AFFC4246294684F82700384603F078FCCA
:1028E400424684F824002946384603F06DFC94F8E7
:1028F400243043EA001384F82430B9F1000F03D0E4
:10290400C4F83C90C4F8149094F82330002B73D18D
:10291400002E6ED12046FFF7D0F86369B3F1807FB3
:1029240038D9324621212046FEF7CAFF94F82030D8
:102934008BB93146204684F82660FFF798F80721C2
:102944002046FEF78AFE002007B0BDE8F083FDF7BD
:10295400EBFD8146D1E701212046FFF788F894F882
:102964002690B9F1010FEAD1424629463846FDF7CF
:10297400E5FD38B12046FFF785FE49462046FFF7BE
:102984003AFEDCE7324631462046FEF7D3FE84F8B1
:102994002660D4E794F8203033B93146204684F8D1
:1029A4002660FFF759F8CEE701212046FFF754F8D7
:1029B40094F82690B9F1010F15D1424629463846BC
:1029C400FDF7BCFD38B12046FFF75CFE49462046C2
:1029D400FFF711FEB7E7324631462046FEF7AAFE5E
:1029E40084F82660AFE7324631462046FEF7A2FE61
:1029F400A9E784F82630A6E701212046FEF779FDF1
:102A0400E36802211A792046FEF75AFF2046FEF7B2
:102A1400B0FD05460A2002F03DFBEB07ECD420464E
:102A2400FFF7DEFA94F82030022B8CD101212046E6
:102A3400FFF7A5FA87E700BF00E1F5051FB5019090
:102A4400019B114C0BB1206840B9002001F060F8E3
:102A54000E4BB0FBF3F0019B20609BB1302882BF8A
:102A6400019B03F1FF330193019B5BB10522019BA1
:102A7400013B4343B3FBF2F30393039B5A1E0392BC
:102A8400002BFAD104B010BD44BC002040420F001A
:102A940070B50E461546044658B302220368DA6040
:102AA4000268936D23F00073936502680020D2F8E6
:102AB400943043F00043C2F89430FFF7BFFF142072
:102AC400FFF7BCFF2068D0F89430DB05FBD5D0F8C5
:102AD4009430D0F89420DBB222F00042C0F8942065
:102AE4005A1E327001220020043B2B702368DA60E6
:102AF40070BD0120FCE7000037B5144605460028E8
:102B040043D0002941D0FEF77BFC2846E1B2FEF712
:102B14003BFD2846FFF754FD1D4B984230D91D4B11
:102B240098422FD91C4B984222D940F2B63440F235
:102B340074431A4A904288BF1C4600220121284649
:102B4400FFF74BF800212246022328460091FEF7A6
:102B54006FFD044648B906212846FEF77EFD04466B
:102B640018B901212846FEF739FD204603B030BDCF
:102B74000B4B4FF43E749842DFD800221146DEE737
:102B8400B424FAE74FF4BE74F7E70124EDE700BF7D
:102B940000366E01006CDC0200D8B805000E270771
:102BA40000879303F0B50E461746054687B0D8B1A3
:102BB400072200240323CDE903220121CDE90143A7
:102BC40000942346FEF7E9FC02212846FEF791FC17
:102BD40039462846FEF786FC3246C0212846FEF7D1
:102BE400A3FC204607B0F0BD0120FBE72DE9FF411F
:102BF4000C4616461F460546002840D06B46214A1F
:102C04001068516803C39068D16803C32846E1B2D1
:102C1400FEF757FD07F110036B4413F8088C4FEAD5
:102C240048185FFA88F80CB304AB03EB560313F8A7
:102C3400104CA40044F0210464B204F0FD0200210D
:102C44002846FFF7AFFF711E284649B2FEF798FDEC
:102C5400424604212846FFF7A5FF791E284649B2BB
:102C6400FEF797FD002004B0BDE8F08106F11003E3
:102C74006B4413F8104CA40044F00104DCE7012079
:102C8400F1E700BF845C0020F0B50E461746054608
:102C940087B0D8B1072200240223CDE90322012101
:102CA400CDE9014300942346FEF777FC042128462E
:102CB400FEF71FFC39462846FEF714FC3246C021B5
:102CC4002846FEF731FC204607B0F0BD0120FBE7A3
:102CD40030B5054685B0A0B100240721022390F841
:102CE4002520CDE902115200CDE9004352B223461A
:102CF400FEF7B2FB21462846FEF7A3FB204605B0AB
:102D040030BD0120FBE730B5054685B090B1072101
:102D140000240223CDE90211CDE90043234690F9B2
:102D24002620FEF7C2FB80212846FEF7B2FB204690
:102D340005B030BD0120FBE7F0B5044687B000289C
:102D44003BD090F82330052B34D0033B012B2ED8F5
:102D5400012603270023072576B27FB21A460121F4
:102D64002046CDE90355CDE901570096FEF715FC41
:102D74000022FF212046FEF7D7FB94F82330052BD1
:102D84000FD1002301211A462046CDE90355CDE990
:102D940001570096FEF701FC0022FF212046FEF7B2
:102DA400C3FB002002F076F9032002F073F900203F
:102DB40007B0F0BD03260227CCE70120F8E70000A6
:102DC40030B5044685B000286ED000296CD0FEF7DB
:102DD40017FB23680DF10E020DF10F0120461D684B
:102DE400FFF756FE01212046FEF7CEFB2046FFF7F3
:102DF400E7FB2E4B05F00105984236D81423032136
:102E04008DF80E308DF80F3008460023B42284F874
:102E1400251084F82610062100902046FEF708FCB1
:102E240007212046FEF719FC01212046FEF757FC36
:102E34009DF80E102046FEF760FC00229DF80F104E
:102E44002046FEF766FC01212046FEF7C7FB012160
:102E54002046FEF7D1FB2DB9154B1B6803F0030385
:102E6400032B1DD1002005B030BD124B98420BD965
:102E740003F1377303F5D84398420BD90721142083
:102E8400082340F23252C2E705210E20032340F208
:102E9400B632BCE706211120052340F27442B6E79E
:102EA4002046FFF749FFDDE70120DCE7016CDC0287
:102EB40000000C50011C4E0EF0B5044685B00028ED
:102EC40000F09680002900F09380FEF799FA2368B9
:102ED4000DF10E020DF10F0120461E68FFF7D8FD1B
:102EE40001212046FEF750FB2046FFF769FB414BCA
:102EF40005469842404F06F0010650D8142303219A
:102F04008DF80E308DF80F30B42200230091204646
:102F14000621FEF78DFB07212046FEF79EFB0121CB
:102F24002046FEF7DCFB9DF80E102046FEF7E5FB7D
:102F340000229DF80F102046FEF7EBFB01212046EE
:102F4400FEF795FB01212046FEF748FB01212046B0
:102F5400FEF752FB2EB994F8273013B92046FFF739
:102F6400EBFEBD423AD9254B9D423CD906220223B1
:102F740088253B2684F82630012184F82520204624
:102F8400FEF79FFB324600212046FFF77DFE2A46CE
:102F940004212046FFF778FE002005B0F0BDB842BA
:102FA4000DD9164B98420FD903F1377303F5D84363
:102FB40098420ED81421082340F23252A6E70E217B
:102FC400032340F2B632A1E71121052340F27442F3
:102FD4009CE7172109234FF4BE6297E704220023DC
:102FE40008253326C6E70522002308253726C1E72E
:102FF4000120D2E7016CDC02011C4E0E01882A116B
:1030040070B50E461546044686B0F8B10722032370
:10301400CDE901230023CDE9032200930121FEF72A
:10302400BCFA31462046FEF76EFA02212046FEF72E
:1030340060FA29462046FEF755FA4FF480326021A3
:10304400204606B0BDE87040FEF76EBA06B070BD0B
:1030540038B504460122FFF7B3FE2046FFF7B0FA65
:10306400154B98421FD9154B98421FD903F1F4739D
:1030740003F5904398421CD942F28F7541F28F7345
:103084000F4A904298BF1D4601212046FEF7C2FA1E
:103094002A4620460021FFF7B3FF01212046FEF710
:1030A40010FB002038BD4EF28F75EDE74FF28F759F
:1030B400EAE740F28F75E7E781FE210A01D4650C47
:1030C40001882A111FB560B10721032390F8252038
:1030D400CDE90013013A0023CDE9021152B2FEF703
:1030E400BBF905B05DF804FB1FB560B107210323EC
:1030F40090F82620CDE90013013A0023CDE902110E
:1031040052B2FEF7D2F905B05DF804FB2DE9FF4792
:103114000B69044680F823300B69033B032B00F250
:103124008580DFE803F0026358792046FFF748FE04
:103134000322064608212046FFF734FD2046FFF708
:103144003FFA4D4B98425FD903F1A46303F58343DF
:1031540098425BD903F1377303F5D843984257D9A2
:10316400464B984256D9464B984294BF07250025B2
:103174004FF0000807274FF0030A4FEA450943467A
:1031840009F1FF3239462046CDE90277CDE9008ABC
:10319400FEF762F941462046FEF753F943466A1E9C
:1031A40039462046CDE90277CDE9008AFEF77DF95C
:1031B40080212046FEF76DF92B464A460121204620
:1031C400FFF714FD4FF6FF712046FEF7EBFA304689
:1031D40004B0BDE8F0872046FFF76EFE2046FFF7F7
:1031E40077FD2046FFF78FFD0026EBE72046FFF72B
:1031F400E7FD4322064608212046FFF7D3FC0121C0
:103204002046FEF750FA99E70325B1E70425AFE716
:103214000525ADE70625ABE72046FFF719FF204655
:10322400FFF750FF2046FFF75FFFDDE70026032589
:103234004FF0010802272046FFF75EFC33460622C2
:1032440029462046CDE90067CDE90258FEF704F986
:10325400EB212046FEF7F5F8334632462946204650
:10326400CDE90067CDE90258FEF71FF93821204661
:10327400FEF70FF90646A5E70129DE0701EBC9139E
:103284000184D717000000000102030400000000BD
:1032940004020601002310B5084A916B814205D847
:1032A400D46B2144814201D958B210BD0133052B9E
:1032B40002F14402F1D14FF0FF30F6E72CE2002096
:1032C400064A936B834206D8D26B1344834294BF5D
:1032D4000020012070470020704700BFE8E1002073
:1032E40003460244934200D1704703F8011BF9E7F7
:1032F40038B50546FFF7E4FF044648B92846FFF70A
:10330400C9FF431C06D04422034B02FB003038BDE6
:103314000248FCE72046FAE72CE20020E8E100201E
:1033240010B50C46C9B12AB9022000F0E1FBB0FB8C
:10333400F4F010BD00F03CFB0228024602D100F07C
:103344006CFBF4E7012802D100F064FBEFE7044BC7
:103354000448032A18BF1846E9E70846E9E700BF0E
:10336400006CDC0200D8B8050020704700207047CC
:10337400002070470020704700220C4B10B51A60E3
:10338400FFF7F2FF041E18BF0124FFF7EFFF08B197
:1033940044F00204FFF7ECFF08B144F00404FFF723
:1033A400E9FF08B144F00804204610BDE4E1002020
:1033B40010B586B000F00CFF3022002104461748F7
:1033C400FFF78EFF142201A8FFF78AFF144B019325
:1033D400A3F558335B68C3F30223023B042B1AD8CA
:1033E400104AD35C8B4208BF0623102205934FF08A
:1033F4008053CDE9033200F0E9FE0346591E4B42E7
:1034040006484B41224601A980F82730FFF77EFE8B
:10341400002006B010BD0623E7E700BFB4E100209A
:1034240000100450485E0020B0F1805F08B502D05F
:10343400B0F1C04F04D10348FFF7C2F8400808BDFB
:103444000020FCE7B4E10020030305020600FFF7B7
:10345400EBBF0000EFF3108072B6704780F3108862
:10346400704740BF714A1368012B04D04FF0010329
:1034740013606F4A10606F4A11606F484FF08051BB
:1034840001607047EFF3108272B66848016889B32F
:103494004FF00001016066480168B1B1EFF30981A2
:1034A4001EF0100F08BF21ED108B21E9F00FEFF390
:1034B4000B8441F8044D4FF000041EF0100F08BFB8
:1034C400012441F8044D006801605A4909680968FB
:1034D40008C910C984F30B88B1E8F00F002B18BF9A
:1034E400B1EC108B81F309884EF0100E002B18BF3D
:1034F4002EF0100E82F310884EF0040E70474F48E1
:103504004FF47F01D0F8002041EA020101607047C6
:1035140048490860EFF3148222F0040282F314880D
:1035240043494FF00000086040494FF00100086033
:1035340042484FF47F01D0F8002041EA02010160C3
:103544003D484FF0805101603D480068006800BF6D
:1035540080F3088861B662B6704700BF20BF704729
:10356400EFF308801EF0040F01D0EFF3098020E987
:10357400F00FEFF30B8440F8044D40F804ED40F8ED
:1035840004ED1EF0040F02D080F3098801E080F3FB
:10359400088800B502F02CFE5DF804EB4EF0040E32
:1035A4007047EFF308801EF0040F01D0EFF3098099
:1035B40020E9F00FEFF30B8440F8044D40F804EDDC
:1035C40040F804ED1EF0040F02D080F3098801E0F6
:1035D40080F3088800B502F0A3FD5DF804EB4EF01B
:1035E400040E704710B4EFF3038410B47C4600B5A6
:1035F40000B54DF804CD0FB4089C2DE9F00FEFF39E
:103604000B8410B400B5684602F09AFD01BC10BCEE
:1036140084F30B88BDE8F00F0FBC5DF804CB5DF8B4
:1036240004EB10BC10BC10BC70470000C0E90020C3
:10363400C8E90020C4E9002004ED00E020ED00E02A
:1036440008ED00E0104A1378FF2B05D10F4B9B685F
:10365400DB4303F0010313700D4A506B4BB10D4B68
:103664001B681BB90A23B0FBF3F070470A4B1B8895
:10367400F9E74FF47A72C0F30E03C00B534350437F
:1036840000EBD330704700BFD2B5002000B00C501F
:1036940000000C506CE1002068E1002008B5002A0D
:1036A40000F05581002900F05281612800F24A811E
:1036B400DFE810F062002C014801690028016D0068
:1036C400240148017100F0001C0118014801750033
:1036D400480179007D0048018100480148018600C5
:1036E40013018B0090009500A200A700AC004801D4
:1036F40048014801B100B6000E010901BB00C00039
:1037040048014801C50048014801CA004801CF00EA
:10371400D400E900F9004801480148014801480182
:103724004801D9000401DE003F01E100E300480143
:1037340048014801E5004801E70048014801480103
:10374400EB0048014801480148014801480148018B
:10375400F200F200F7004801480148014801FB006B
:103764004801480100012001300135013A019A0065
:10377400480102014401F20000230B6001234FF0D1
:10378400A040136008BD00230B600223F7E7002369
:103794000B600423F3E700230B601023EFE70023FF
:1037A4000B602023EBE700230B604023E7E70023B3
:1037B4000B608023E3E700230B604FF48073DEE7A4
:1037C40000230B604FF48063D9E700230B604FF4B0
:1037D4000063D4E700230B604FF48053CFE700234A
:1037E4000B604FF40053CAE701230B604FF400133E
:1037F4004FF080401360C5E700230B604FF4804313
:10380400BDE700230B604FF40043B8E700230B60CF
:103814004FF48033B3E700230B604FF40033AEE77B
:1038240000230B604FF48023A9E700230B604FF4BF
:103834008013A4E700230B604FF400139FE70023D9
:103844000B604FF480039AE700230B604FF0007382
:1038540095E700230B604FF0006390E700230B60B3
:103864004FF080538BE700230B604FF0004386E753
:1038740001230B6083E7012386E7012388E7012303
:103884008AE7012390E7012396E701230B604FF4B5
:10389400007374E701239EE701230B604FF40023B8
:1038A4006DE70123C2E70123CFE701230B604FF447
:1038B400000364E70123C3E70023F7E700230B6059
:1038C4004FF4807394E700230B604FF480638FE719
:1038D40000230B604FF400738AE700230B604FF45E
:1038E400004385E700230B60402381E700230B603E
:1038F40020237DE700230B60102379E700230B606E
:10390400082375E700230B60042371E700230B6091
:1039140002236DE700230B604FF4801368E7002354
:103924000B604FF4002363E700230B604FF4802304
:103934005EE700230B604FF4803359E700230B60EC
:10394400802355E740F22231024802F0FDFB0020BB
:1039540018E700BFF772002007B5134A134902EBBA
:10396400C002D1F89C309278022862F30303C1F8B4
:103974009C300DF1070011D1FCF7C8FC10B10B23EA
:103984008DF80730094A9DF80710D2F8943061F396
:103994000303C2F8943003B05DF804FBFCF7C2FCE7
:1039A4000028EFD00D23EBE7AC6B002000A00C50F7
:1039B4004FF0A0430D281A6A0DD842F6F173C340A4
:1039C40013F0010F0CBF012303238340134023FA98
:1039D40000F0C0B270470123F7E70000012803D0CC
:1039E40002280ED0002070474FF0A043DB6A63B179
:1039F40013F001000AD00648C3F3830303FB00005D
:103A040070474FF0A0431B6BF1E71846704700BFA7
:103A140000366E010120FFF7E1BF0220FFF7DEBF91
:103A24000020704738B5244BA1F1B774A4F558545D
:103A34009C423FD8012839D0022839D040F27B611A
:103A44001E4802F081FB1E4B0020D3F894209107FE
:103A54005EBFD3F8942042F00202C3F89420D3F856
:103A64009420D2075EBFD3F8942042F00102C3F839
:103A74009420144A2B68B4FBF2F423F001032B6066
:103A84002B6823F4005323F03C0343EA840343F4F8
:103A9400805343F001032B6001F0FCFA0A2001F08B
:103AA400F9FA2B68002BFCDA002038BD064DCAE772
:103AB400064DC8E70120F8E7002A7515F7720020C3
:103AC40000B0005000366E012C0000503000005051
:103AD40001460120FFF7A6BF01460220FFF7A2BF5F
:103AE4004FF0A042D36A002023F00103D362704751
:103AF400012808D14FF0A0431B6A03F00303032BF2
:103B040001D1FFF787BF0148704700BF006CDC029A
:103B1400021E08BF012210B51046FFF7E9FF012A73
:103B240004460AD0022A10D040F24B710A4802F02F
:103B34000BFB0123B4FBF3F010BD4FF0A0435B6A11
:103B4400DBB2012BB8BF0123F4E74FF080435B697C
:103B540003F03F03F5E700BFF77200204FF0A043E6
:103B640010B50D281B6A18D842F6F172C24012F043
:103B7400010F0CBF0122032202FA00F411404FF09E
:103B8400A04223EA040381400B43136220B90120BD
:103B9400FFF7BEFF024B186010BD0122ECE700BF27
:103BA4005CAE00200028D8BF002008B5CCBFFF239E
:103BB4000346002912DB002A43F4E06340EA0120B3
:103BC4000EDA4FF0A0414A6A22EA030303434B6230
:103BD4000120FFF79DFF074B186008BD002A04DB96
:103BE40043F4E04340EA0230EBE7002BF0D0FF233C
:103BF400E7E700BF5CAE002070B50C46194D0646E1
:103C0400FFF7AAFE2B69FA2023F004032B6101F0CD
:103C140041FA302C0DD800210846FFF79FFF3020D1
:103C240004220021B0FBF4F0FFF7BCFF002420467F
:103C340070BD01F0BDF90C4800EBC60043680B48A9
:103C4400EB616043FFF744FF04460028EFD10121F4
:103C540006220846FFF7A6FF03212046FFF77EFF52
:103C6400E4E700BF00B00050AC6B002040420F00FE
:103C74002DE9F3411F4C204F04EBC0023B6B9278BB
:103C8400054662F317534FEAC0083B630DF1070082
:103C94000E46FCF73BFB10B10B238DF807309DF863
:103CA400071014F9352030250A440021FB6C08461E
:103CB40062F38503FB64FFF751FF302EB5FBF6F585
:103CC40004D940F602210D4802F03EFA04220021F4
:103CD4002846FFF767FFFFF703FF01F075F9444437
:103CE400074B6268DA611A6942F004021A6102B091
:103CF400BDE8F081AC6B002000A00C50F7720020EE
:103D040000B0005070B5314E054633780C46012B97
:103D140043D9023B012B02D90125284670BD2C4B07
:103D240053F82120FFF779FE9042F5D8012905D8F0
:103D340029462046FFF79CFF002535E00021084670
:103D4400FFF70CFF2046FFF707FEFA2001F0A2F967
:103D5400FFF7C6FE302D0DD801F036F900210846D4
:103D6400FFF7FCFE042200213020B0FBF5F0FFF742
:103D740019FFE1E701F01CF916486843FFF7A8FEB4
:103D840005460028C8D1012106220846FFF70AFF8C
:103D940003212846FFF7E2FECEE7012909D90146AF
:103DA4002046FFF729FF05460020347001F072F920
:103DB400B3E78B4203D14FF0FF321146D4E7902191
:103DC4000220FFF719FF0028A6D1B1E750AE00206A
:103DD4009C6B002040420F00002808B511DD00292B
:103DE40026DB012800D139B13F2343F4E06340EAE4
:103DF4000120002A0BDA0EE00146F5E70020034615
:103E0400F3E70029FADA002A0CDB0020034643F426
:103E1400E04340EA02304FF080414A6922EA03035A
:103E240003434B610220FFF773FE024B186008BD89
:103E34003F23DEE75CAE002038B5041E08BF012432
:103E440020460D46FFF764FE012C08D0022C0ED04C
:103E54000A4840F26C7102F077F9002006E04FF056
:103E6400A0435B6A3DB1C3F30223D84038BD4FF091
:103E740080435B69F6E7C3F30233F6E7F772002089
:103E84004FF080431A6842F480221A601A68520381
:103E9400FCD51A6822F480221A607047024A13681B
:103EA40023F004031360704700000440134A1368AE
:103EB400590721D4116800280CBF01234FF0FF33A8
:103EC40041F0040111604FF0804243F48013136009
:103ED40011680029FCD0094A116CC80606D5116C7A
:103EE40041F002011164116CC906FCD44FF0804109
:103EF4000A6822EA03030B60704700BF0000044015
:103F040007B56A4601A9FFF7C9FBB0F1A04F0FD16D
:103F1400019B13B1012B11D10C480368009A134380
:103F24000360036823EA0203036003B05DF804FB43
:103F3400B0F1804F02D1019B002BEED040F603017B
:103F4400034803B05DF804EB02F0FEB8040000502F
:103F5400F772002007B56A4601A9FFF79FFBB0F18D
:103F6400A04F05D1019B83B1012B06D10F4B0DE06E
:103F7400B0F1804F01D1019BB3B140F622010C484E
:103F840003B05DF804EB02F0DFB80A4BEFF31081E5
:103F9400012282F310881A68009802431A6081F3A0
:103FA400108803B05DF804FB034BEFE70C000050EE
:103FB400F7720020080000500400004007B56A466C
:103FC40001A9FFF76BFBB0F1A04F05D1019B83B1B1
:103FD400012B06D1104B0DE0B0F1804F01D1019BB4
:103FE400BBB140F63F010D4803B05DF804EB02F0AD
:103FF400ABB80B4BEFF31081012282F310881A68DF
:10400400009822EA00021A6081F3108803B05DF878
:1040140004FB044BEEE700BF0C000050F7720020D5
:1040240008000050040000402DE9F8432A4B1B69A6
:10403400002B4EDA4FF0A0456B6B4FF00B096FF37A
:104044000F036FEA93336FEA83334FF400744FF432
:104054008078224E6B63736F214F43F4C003736700
:10406400736F43F04063736747F6E073726F03EA5C
:1040740044133A4013437367032001F00BF86B6B4E
:1040840043F080436B636B6B002BFCDAA96BAA6B68
:104094006B6B90B223F08043B0EB114F6B634FEA2C
:1040A400114335BF1B1AC01A4444A4EB080435BF9E
:1040B40098B280B2A4B2A4B23F2804D9B9F10109DC
:1040C4004FEA5808D0D1A02894BF00200120BDE8B1
:1040D400F8830120FBE700BF00000C5000A00C5047
:1040E4001F80FFFF0028D6BF0020FF2303460029BE
:1040F40013DB002A08BF0122090201F4E061002A4F
:1041040043F4E06340EA010009DA4FF0A0414A6C4D
:1041140022EA030303434B647047002A06DB1203BD
:1041240002F4E04243F4E0431043EEE7002BF3D003
:10413400FF23EAE74FF0A0435A6C22F480225A642A
:104144005A6C61F311425A64704708B50F20FFF7A7
:1041540035FF0D20FFF732FF01200021FFF7EAFFB2
:1041640002460C20FFF7BEFF00210C20FFF7F6FCEF
:1041740001F0DAFF08BDF0280DD8902807D83028C0
:1041840007D8182894BF00210121FFF7BBBD0321E4
:10419400FBE70221F9E7012070470000000000005E
:1041A4000000000000882A1100882A11FB0609007B
:1041B40030031000FD080A0031031100000B0D004C
:1041C40013021300020D0F001302130000207047A6
:1041D400014B1888704700BFD6B50020014B1888E2
:1041E400704700BFD4B500204FF0C44070470000B2
:1041F40038B50020FFF7DCFB044628B900F0D8FEF0
:1042040001212046FFF7AAFC01210C20FFF7A6FCA0
:10421400FFF7DCFF012863D0022000F059FE0120E3
:10422400FFF744FE02F008F800F0E4FE012001F07C
:10423400E3FF022001F098FF3E4B3F4A0120C3F800
:10424400902001F0E5FF01F0C7FF01F0C9FF18B1AC
:104254006C213A4801F078FF394A3A48936843F0B0
:104264000103936001F084FF4FF08042136943F02F
:1042740010031361EFF31085012383F31088324C8C
:1042840023781BB979212D4801F05EFF2378013B87
:10429400DBB2237023B92D4AD36A23F00103D3621E
:1042A40085F31088264B9C6814F0010418D101F0A2
:1042B40053FF64222146C82001F072FF01F094FFED
:1042C4004FF41652B0FBF2F04FF47A72B2FBF0F2F4
:1042D400184901320B6F23F47C7343EA02130B6712
:1042E400F020FFF748FF1A48FFF7F6FB04254FF0CC
:1042F400A04302249D621A6A002042F400421A621A
:1043040000F0C8FE134B1C80134B1D80FCF75EF8B5
:1043140021462846FFF722FC012200201146FBF724
:1043240083FFFFF745F82146BDE838400620FFF734
:1043340015BC00BF00A00C5000E20400487300202C
:1043440000B00C5000B00040408C002000000C5025
:10435400001C4E0ED6B50020D4B5002008B500F0E0
:1043640001F9BDE80840012000F063BA7047014636
:104374000122002000F03CBA00210122084608B5C1
:1043840000F036FABDE8084001220021104600F092
:104394002FBA4FF4FA7008B500F07CFE00F0A0F8D4
:1043A400BDE8084001221146104600F021BA08B5C4
:1043B40000F079F8BDE8084001220A20114600F017
:1043C40017BA012200210A2000F012BA0146012284
:1043D4000A2000F00DBA10B5012304461022092169
:1043E400022000F0DFFF012310220A21032000F045
:1043F400D9FF012310220B21042000F0D3FF012355
:1044040010220C21052000F0CDFF012310220D21E4
:10441400092000F0C7FF012310220E210A2000F01A
:10442400C1FF012310220F210B2000F0BBFF10223B
:10443400012311460C2000F0B5FF01230022194688
:10444400082000F0AFFF012300220321062000F022
:10445400A9FF022C4FF0010310D0042C21D010220C
:1044640006210D2000F09EFF0121084601F042F9CB
:10447400BDE810400121072001F03CB910220421BD
:10448400184600F08FFF0123102205210D2000F0B3
:1044940089FF2146BDE8104001230022072000F0D7
:1044A40081BF0022DCE710B5012300225B21172025
:1044B40000F078FF012300225C21182000F072FF35
:1044C400012330224FF49C71222000F06BFFBDE8E1
:1044D40010400123302240F23911192000F062BF4C
:1044E40008B50022012352210E2000F05BFF0123B6
:1044F400002253210F2000F055FF0123002240F237
:104504005511102000F04EFF012300224FF4A77133
:10451400112000F047FF0123002240F24F11122026
:1045240000F040FF012300224FF4A871132000F093
:1045340039FF0123002240F25111142000F032FF10
:10454400012300224FF4A971152000F02BFF012351
:10455400002240F25311162000F024FFBDE8084069
:10456400FFF7A1BF10B5A04B5B6813F4E06FC3F372
:1045740002245BD1012322460321022000F012FF12
:104584000123224619460A2000F00CFF01231022C1
:104594000921082000F006FF012310220A2103202C
:1045A40000F000FF012322460C210B2000F0FAFE4C
:1045B400FFF70CFE012803D176218C4801F0C4FDDD
:1045C4000123002219211E2000F0ECFE0123002209
:1045D4001B211A2000F0E6FE0123102221211D20B8
:1045E40000F0E0FE0123102222211B2000F0DAFE5D
:1045F4000123302223211C2000F0D4FE0123302289
:1046040024211F2000F0CEFE0123302240F221118C
:10461400212000F0C7FE012330224FF490712020A6
:1046240000F0C0FEBDE81040FFF75ABF012C40D196
:10463400234600220321052000F0B4FE2346002275
:1046440021460A2000F0AEFE2346102209210C2048
:1046540000F0A8FE234610220A21032000F0A2FE47
:10466400234630220B21204600F09CFE23463022B4
:104674000C21092000F096FE2146022001F03AF8B0
:104684002146042001F036F82146062001F032F8D4
:104694002146072001F02EF82146082001F02AF8CF
:1046A40021460B2001F026F801210D2001F022F80B
:1046B40086E7023C042C00F28D80DFE804F04644D7
:1046C4003E0342000123002219460A2000F06AFE3C
:1046D400012300220321092000F064FE012310229B
:1046E4000921062000F05EFE012310220A21082081
:1046F40000F058FE012330220B21072000F052FE67
:10470400012330220C210B2000F04CFE012108462D
:1047140000F0F0FF0121022000F0ECFF0121032052
:1047240000F0E8FF0121042000F0E4FF012105204E
:1047340000F0E0FF01210C20B4E70220FFF74BFE5C
:104744003EE70420FAE70120F8E7012310220921BB
:10475400022000F027FE012310220A21032000F08A
:1047640021FE012310220B21042000F01BFE012353
:1047740010220C21052000F015FE012310220D212A
:10478400062000F00FFE012310220E21072000F066
:1047940009FE012310220F21082000F003FE10223D
:1047A40001231146092000F0FDFD012310220621FA
:1047B4000A2000F0F7FD0123002219460B2000F027
:1047C400F1FD0321012300220C2000F0EBFD012167
:1047D400084667E7002401340121204600F08AFFDF
:1047E4000D2CF8D1ECE600BF00B000509A73002005
:1047F4007FB50B4B0B4C0546002A18BF1C46012302
:104804000E46CDE901030023204601A9039300F0DD
:1048140009F92046F2B2A9B200F008FA04B070BD5A
:1048240000000A500000084001220B201146FFF747
:10483400DFBF08B5FFF7F8FF08BD2F557365727326
:104844002F776F6E6465727875652F4465736B742A
:104854006F702F53444B732F5369466C692F6472E6
:1048640069766572732F68616C2F6266305F686168
:104874006C5F6770696F2E63002F55736572732FB9
:10488400776F6E6465727875652F4465736B746FAA
:10489400702F53444B732F5369466C692F647269AC
:1048A400766572732F68616C2F6266305F68616C25
:1048B4005F6870616F6E2E63002F55736572732F7E
:1048C400776F6E6465727875652F4465736B746F6A
:1048D400702F53444B732F5369466C692F6472696C
:1048E400766572732F68616C2F6266305F68616CE5
:1048F4005F6D70692E63002F55736572732F776F28
:104904006E6465727875652F4465736B746F702F70
:1049140053444B732F5369466C692F6472697665EF
:1049240072732F68616C2F6266305F68616C5F72AE
:1049340063632E630052545F454F4B203D3D20720C
:1049440000666C61736831002F55736572732F773D
:104954006F6E6465727875652F4465736B746F70E0
:104964002F53444B732F5369466C692F63757374CB
:104974006F6D65722F626F617264732F7366333269
:104984006C6235322D6E616E6F5F626173652F628A
:1049940073705F696E69742E63002F55736572734B
:1049A4002F776F6E6465727875652F4465736B74C9
:1049B4006F702F53444B732F5369466C692F637583
:1049C40073746F6D65722F626F617264732F736697
:1049D40033326C6235322D6E616E6F5F6261736566
:1049E4002F6273705F70696E6D75782E63000000BE
:1049F40008B50A4B984214BF402360238B4206D962
:104A040001F01F034909138000EBC11008BD0448DD
:104A140040F2553101F098FB0020F7E700000A50FE
:104A24003A72002037B50C46054618B9B3214848F8
:104A340001F08AFB6368012B14D9112B12D0454A6B
:104A440023F4001191420DD002F58012934209D053
:104A540023F4801302F50012934203D0B4213C489E
:104A640001F072FBA368022B03D9B521384801F089
:104A74006BFB284621880DF10602FFF7B9FF0346B8
:104A840090B101226168BDF80600012902FA00F222
:104A94000CD1596A11435962996D11439965DA64CD
:104AA400DA65DA639A645A6103B030BD11290CD116
:104AB400596A11435962996D11439965DA64DA654B
:104AC400DA601A639A635A64EEE759B9596A114372
:104AD4005962996D11439965DA64DA65DA639A6407
:104AE4009A61E1E79A6161681A4CA14211D1D96ACD
:104AF4001143D9629A639A640122174982408D4214
:104B04000BBF196A596D0A430A430CBF1A625A65EE
:104B1400CAE7124CA14204D1D96A1143D962DA63BB
:104B240006E00F4CA14205D1D96A1143D9629A63B8
:104B34005A64E1E70B4CA14203D1196B1143196389
:104B4400D8E7094CA142D7D1196B11431963E6E7A1
:104B54003A7200200000111000000A5000002110D9
:104B640000003110000041100000511037B50D460F
:104B7400044620B94FF494710E4801F0E5FA20463A
:104B84000DF10602A9B2FFF733FF80B10123BDF88E
:104B9400061082698B401A438261426A1A43426258
:104BA400826D1A438265C364C365C363836403B0BF
:104BB40030BD00BF3A72002037B50D46044620B917
:104BC40040F25311184801F0BFFA294620460DF16E
:104BD4000602FFF70DFFE0B10123BDF8062041688E
:104BE4009340D140CC0716D4816AD140C90712D46E
:104BF400416B01EA030433EA01010CD1016C8C43DB
:104C040009D10369D340DB4303F00103181E18BF25
:104C1400012003B030BD016921FA02F2D2074CBF72
:104C2400426802681340F1E73A72002073B50E46F9
:104C34001446054620B940F289111B4801F084FA54
:104C4400012C04D94FF4C571174801F07DFA31469F
:104C540028460DF10602FFF7CBFED0B10123BDF8C3
:104C6400061042688B40CA40D50718D4826ACA40ED
:104C7400D20714D4416B01EA030233EA01010ED1D5
:104C8400056C05EA0201AA4309D124B943690B431F
:104C9400436102B070BD83690B438361F9E70CB1D2
:104CA4008360F6E7C360F4E73A720020F7B50DF1CC
:104CB400060206460F46FFF79BFE044628B31C4B2C
:104CC400BDF806509E4222D0C36DEB40D8071CD5D8
:104CD400236DEB40D90704D44FF40171154801F05A
:104CE40033FA0123AB40E3653946304601F064FAF8
:104CF4003946304600F01CF9002806DB0123083051
:104D04000D4A834043F00043936203B0F0BDC36C8B
:104D1400EB40DA07F9D5C369EB40DB0704D440F272
:104D24000F21044801F010FA0123AB40E364DBE7F0
:104D340000000A503A72002000000C500C4B70B571
:104D44009842044610D00B4B98420FD040F24321B6
:104D5400094801F0F9F90025A9B220460135FFF709
:104D6400A5FFAE42F8D270BD4E26F4E72426F2E742
:104D740000000A50000008403A72002037B50D4682
:104D8400044620B940F26F212F4801F0DDF90DF1FE
:104D9400060229462046FFF72BFE024600284ED085
:104DA4004368BDF80610CB40DD070CD4836ACB40C2
:104DB400DC0708D40123406B8B4033EA000002D1A6
:104DC400106C834335D01369CB4013F001001ED11E
:104DD400D369CB4013F0010019D0936ACB4013F090
:104DE400010F536B23FA01F313D0D80703D5136CC7
:104DF400CB40DB071FD4536BCB40DD071DD4136CB2
:104E04001248CB4013F0010F08BF4FF0FF3003B03E
:104E140030BDDC0703D5136CCB40D8070FD4536BDC
:104E2400CB40DB070ED4136C0948CB4013F0010FC1
:104E3400EAE71120EBE70748E9E70748E7E74FF01F
:104E4400FF30E4E70548E2E73A7200200000211051
:104E5400000051100000311000001110000041103A
:104E640073B50DF106020646FFF7C2FD044640B3D2
:104E7400154BBDF806509E4212D0C36DEB40D807C7
:104E84000BD5236DEB40D90704D44FF44A710F4876
:104E940001F05AF90123AB40E365002002B070BD74
:104EA400C36CEB40DA07F8D5C369EB40DB0704D4E5
:104EB40040F23231054801F047F90123AB40E36485
:104EC400EBE70120EAE700BF00000A503A72002035
:104ED400022838B524D1134CE620E36A43F00103D9
:104EE400E36200F0D7F8E36A9A06FCD51E2000F0CE
:104EF400D1F8E36A9B06FCD5EFF31085012383F315
:104F04001088094C2378132B03D9A821074801F0F2
:104F14001BF923780133237085F31088002038BDF2
:104F24000120FCE700000C50408C00207972002026
:104F3400064B984206D1A1F1180083B2142B01D874
:104F440040B270474FF0FF30704700BF00000A5076
:104F54000346084631B1142B03D8183302480B809A
:104F640070470020704700BF00000A50B9B11428F0
:104F740015D80F280CD910380A4BC0B21A68072369
:104F840000EB400083401340C3400B700020704787
:104F9400072885BF0838044B044BC0B2EEE7012054
:104FA400704700BF0C000C5008000C5004000C505B
:104FB400044B1A6942F002021A611A69002AFCDAE7
:104FC400704700BF00000C50024A136923F002032B
:104FD4001361704700000C50054B5B6B834238BF74
:104FE40003F1FF33181A88422CBF032000207047B6
:104FF40000000C50094BDA6A92060CD508490020CF
:105004004A6842F000424A605A6842F000425A60DC
:1050140001225A6370470120704700BF00000C5002
:105024000000044010B5FFF7E3F8FFF7CFF80128BC
:1050340028D0FEF7F9FF044618B1A421134801F063
:1050440083F801F09DF8FFF780F8FFF7BFF8012817
:1050540001D001F0E9F8FFF7B9F8013818BF0120D1
:1050640001F0CEF8032001F08FF8002001F09CF845
:1050740050B9074AD36823F00103D36001F0CCF898
:10508400204610BD0024DCE70124F9E799560310FB
:1050940000B00050034670B5B8B142F210754FF03D
:1050A400E026AB4284BFA3F51C5442F2107332696C
:1050B40098BF0024184688BF103CD30708D400F0DA
:1050C4000BF82346002CECD101E000F005F870BD8C
:1050D40000F048F8F5E7000013B50190019B1C4C63
:1050E4004BB323683BB3019BB3F1807F04D94FF4E6
:1050F400BE71184801F028F8019B33B3164A1368AF
:1051040013F001030DD11548D0F8FC1041F0807163
:10511400C0F8FC105360136843F4003343F00103F8
:105124001360019B22680C49534348684A68121A69
:105134009A42FBD309E00020FEF7EAFC084BB0FBDF
:10514400F3F0019B2060002BCDD102B010BD00BF55
:105154007CBB002099560310001000E000ED00E035
:1051640040420F0037B501904FF0E0204FF47A72BF
:105174004469019B6343B3FBF2F301930023816908
:1051840082698A42FCD025BFA51A5B195B185B189B
:10519400019938BF9B1A994201D803B030BD11461A
:1051A400EEE707B50190019B13B903B05DF804FB6A
:1051B4004FF47A70FFF76EFF019B013B0193F2E716
:1051C4008B10A3F14802F0B5D6B2042E49D8022EB2
:1051D40010D8254D0E2405EB820540F2B222A1EB36
:1051E40086039BB2A3F59073032B3AD8DFE803F050
:1051F400091A27201D4D9B003D2440F221321D44F5
:10520400EDE70E2C4FF0080620D14FF47C512F68A7
:10521400031BB3407B400B4010447B40001B2B60BE
:1052240080B2F0BD0E2C4FF0000612D13F21EEE704
:105234000E2C4FF010060ED14FF47C11E7E70E2C24
:105244004FF018060AD14FF07C51E0E74FF4E061CB
:10525400DDE70721DBE74FF4E021D8E74FF0E06119
:10526400D5E70020DDE700BF58B000500CEF004048
:10527400002A31D02F2816DD3A282DDC0123174AC5
:105284002A388340106F11F0200F14BF184398433D
:105294001067124A11F0100FD16E14BF0B4321EAAC
:1052A4000303D36670472638032815D80C4B11F036
:1052B400200F53F8202014BF42F0100222F01002F5
:1052C40043F8202053F82020C9064CBF42F00802BE
:1052D40022F0080243F82020704700BF00B00C50B1
:1052E4005CB00C5038B14FF0A0429368064843F0CC
:1052F4000403936070474FF080425368034843F0BF
:1053040008035360704700BF003000500030004075
:105314003A2870B5CDBF002601260546A0F13C050C
:1053240004463046FFF7DEFF4EB9402C07DD094A3C
:1053340052F8243061F30E3342F8243070BD05F185
:105344008043013B50F8232022F00F02114340F820
:105354002310F3E758AF0C503B28C8BF3C38430137
:1053640052B1064A0020134433F810208A4202D076
:1053740001301028F8D17047014AF3E7BC820020BD
:105384001C8200203B28C8BF3C38000108441AB1E5
:10539400024B33F810007047014BFAE7BC8200203F
:1053A4001C8200202DE9F0471546044618B94FF039
:1053B400FF30BDE8F0873A28CDBF00270127064615
:1053C400A0F13C063846FFF78DFF8046002F00F021
:1053D4005E81A4F1260003280AD8DFF80CC304F187
:1053E4008043263B5CF8232022F002024CF8232061
:1053F400A1F590739BB20B2B04D82046FFF7E0FE77
:10540400014625E0A1F59C739BB2072B50D84A10A6
:105414009C3AA1EB420189B2B1F59C7F43D040F2A2
:105424003913994240F03A814FF0080E4FF47C5CF6
:10543400A549A4F10E0351F8220003FA0EF34340E8
:1054440003EA0C03434041F8223004F5297189B280
:105454003A462046FFF780FF0F288146A7DC3A46EC
:1054640029462046FFF704FF002F40F01981402C05
:1054740040F31681954AE80652F824304FEA093978
:1054840023F4E04323F0180348BF43F00803A906BC
:1054940048BF43F0100309F4E04949EA030342F822
:1054A4002430002085E74FF0000E4FF03F0CBFE79B
:1054B400A1F5EC739AB2092A37D80522B3FBF2F3AB
:1054C400C3EB8332C3EB82020A4492B2A2F5EC71BD
:1054D40088B2032814D84FF03F0E7D48C90050F815
:1054E40023C0A4F10E028A4082EA0C020EFA01F1F2
:1054F4000A4082EA0C0240F8232004F25521A6E770
:10550400B2F5EE7F40F0CA803F217248DA00D0F84D
:105514006CC0A4F10E03934083EA0C0301FA02F277
:10552400134083EA0C03C366E7E76FF4017A01EBE7
:105534000A0293B2052B28D80323B2FBF3F26FF4CB
:105544000179C2EB823302EB83030B449BB203EB7E
:10555400090C1FFA8CFCBCF1020F00F29F80DB00E7
:10556400A3F581535C49A4F10E0E083B0EFA03F334
:10557400DFF878E151F822005EF82CC0434003EADA
:105584000C03434041F82230B7E76FF4F87E01EB97
:105594000E039AB2092A2AD8B1F5FC7F16D259080B
:1055A40013F0010F4D4B4FF03F004D4A18BF1A4600
:1055B400C9008840D2F800C0A4F10E038B4083EAEE
:1055C4000C03034083EA0C03136096E707D040F210
:1055D400F913994207D100213F20424AEAE71021FA
:1055E4004FF47C10F9E708214FF47C50F5E76FF491
:1055F400587C01EB0C039BB2052B3FF629AF032823
:105604004CD804F18043A1F26232DFF8DCC0263BBF
:10561400042A15D8DFE802F0382A033123004FF4B6
:1056240040524FF0E04A4FF0005EDFF8C490D9F8E2
:10563400040020EA0A0040EA0E00C9F8040000E071
:1056440000225CF8230020F4E04002434CF82320BD
:105654005CF8232042F002024CF82320F8E64FF4D1
:1056640040524FF0E04A4FF0405EDEE74FF4005204
:105674004FF0606A4FF0806ED7E74FF400524FF05E
:10568400606A4FF0C06ED0E74FF48052D9E7A1F5BD
:1056940096739BB2072B3FF6DBAEAEE60021D7E64E
:1056A40006F18046013E58F8263005F0300509F031
:1056B4000F0945EA090523F03F031D4345F0400562
:1056C40048F82650EDE600BF48B0005058AF0C50E3
:1056D40064B0005000B0005070B000507CB0005076
:1056E40078B0005080B000505CB00C5010820020A4
:1056F40000000C503A2838B5044625DD402816DC55
:105704000025A0F13C012846FFF7ECFD01F18043A0
:10571400013B50F823102A4621F05F0141F00F01AC
:1057240040F8231000212046FFF7A2FD0AE0084AB2
:1057340052F8203023F4E04323F00E0343F4E04313
:1057440042F82030002038BD01460125DBE700BFC8
:1057540058AF0C503A2870B50D4611460ADC4FF08C
:10576400A042936843F00403936080BB4FF0FF367C
:10577400304670BD4FF08042536843F008035360D5
:10578400B0F13C03F2D040282EDD1E4B53F820200C
:10579400C2F3C003D4064FEA0313C2F3023648BF70
:1057A40043F0200312F0040205D0002243F040032A
:1057B400402B22D01BD823B1302B08BF052318BFA0
:1057C400FF230B703146FFF7DDFD2880D0E7034649
:1057D40001220D4C03F18043013B54F8233003F0C4
:1057E4000F0603F07003E3E70022084CF2E7502BA6
:1057F40005D0702B08BF0223E1E70123E1E703236F
:10580400DFE700BF58AF0C500030005000300040BC
:105814003F000000003F000000003F0000000000C7
:105824000000000000000000000000000000000074
:10583400000000000000000000000000B20021038E
:1058440001030000000000003B024B02370200008D
:10585400000000000000000000000000B30022036C
:1058640002030000000000003C024B02380200006A
:10587400000000000000000000000000B40023034A
:1058840003030000000000003D024B023A02000046
:10589400000000000000000000000000B500240328
:1058A40004030000000000003E024B023902000025
:1058B40000000000000000000000000000000000E4
:1058C40000000000000000000000000000000000D4
:1058D400000000000000000000000000F2000400CE
:1058E4000000000000000B000000000000000000A9
:1058F400000000000000000000000000F3000900A8
:105904000000000000000300000000000000000090
:10591400000000000000000000000000F4000A0085
:105924000000000000000A00000000000000000069
:10593400000000000000000000000000F5000B0063
:105944000000000000000B00000000000000000048
:10595400000000000000000000000000F6000C0041
:105964000000000000000300000000000000000030
:10597400000000000000000000000000F700030029
:1059840000000D00090000000000000000000000FD
:10599400000000000000000000000000F800020009
:1059A40000000E000B0000000000000000000000DA
:1059B400000000000000000000000000F9000100E9
:1059C40000000F000A0009000000000000000000B1
:1059D400000000000000000000000000FA000D00BC
:1059E4000000100003000C00000000000000000094
:1059F400000000000000000000000000FB000E009A
:105A0400000006000100010000000000000000008A
:105A1400000000000000000000000000FC000F0077
:105A2400000001000C000C00000000000000000059
:105A3400000000000000000000000000FD00100055
:105A44000000030000000900000000000000000046
:105A5400000000000000000000000000FE0005003F
:105A6400060000000000000000000000000000002C
:105A7400000000000000000000000000520054017B
:105A840000000000B202630200006A01000000008E
:105A940000000000000000000000000053000000AF
:105AA40000000000B30264020000000000000000D7
:105AB4000000000000000000000000005400550138
:105AC4000000C601B40265029A016B0100003B02AA
